:020000040000fa
:080000000002040000000000f2
:020000040000fa
:10040000cfdd200000ff2700000188000000000071
:100410000c00070020e32800010020000f00070067
:10042000000020000000e000020032000000020096
:10043000000000008c8e0200000000000040da0086
:100440000000fe00c00720000000e00002003200b3
:10045000002020009001880000000600a102880012
:10046000800078000000eb001a003700e2804000b6
:1004700054a0b4009101ba00e280400054a0b4003e
:100480009102ba00e280400054a0b4000002eb00e8
:10049000472bde00f507b200a6018800602ce100c2
:1004a00008003a000049eb000201e80002003900b0
:1004b0003420ec0002f0a0008301e900f9ff3e00c7
:1004c000040037006128e100010032000082eb00e7
:1004d000040007001101ba000200e000e3ff3a0047
:1004e0000000060004d0a300e20f49001c00390000
:1004f000810278003549ba000201e80002003900a3
:100500003420ec0002f0a0008301e9000f0032006b
:100510002549ba000201e800020039003420ec004d
:1005200002f0a0008301e900080032000400e000ae
:100530000600320015c9ba000201e80002003900c5
:100540003420ec0002f0a0008301e9008180e80083
:1005500054a0b4000300e000e2ff3a0000000600ef
:100560009102ba00055978008301e900f7ff3200d3
:10057000c82ade00055978008301e900f3ff320044
:100580000400e000f1ff320011d9ba00eeff37009d
:1005900050850400000000008e850400000000006b
:1005a0002c86040000000000be850400000000004e
:1005b0005686040000000000e886040000000000e9
:1005c00026870400000000009c8604000000000054
:1005d000c2860400000000006c87040000000000d8
:1005e000800078001104b100030035009101b100d2
:1005f00001003c000050a000000006008001eb005c
:1006000002003700817178008301e800828f510079
:10061000fcff3a0000000600800178008002eb0039
:10062000010037008459780005035100828f520081
:100630000900320065c278008502e8000404e00089
:10064000f8ff3a0083007800068141008058eb00f3
:10065000828f5000fdff3a00000006008000780005
:100660001106b100030035009101b10001003c000a
:100670000050a10000000600800078000100370053
:100680000000e8001004e000fdff3a000100500007
:1006900000000600800178000001780031407800f9
:1006a000005978000004e000fcff3a0003007800e5
:1006b00000000600040037000204e00001003a00d8
:1006c000000005000000e80010417800814f510053
:1006d000f9ff3a0000000600889fbe008a9fbe0016
:1006e000010578000100e0000400350008003c002e
:1006f0000000e0002000320005003700600010001c
:10070000e080180002003b0001f02c001a003700c6
:100710000004be006011b8006b0920000982cf0000
:10072000020039000882cf000441b0006942520043
:100730000e00320008003b008281710061016400fc
:100740008904d1000884d3008b05e8000442e80046
:10075000f9ff3a00050037000804440089844c0082
:100760008b05e9000442e900fbff3a00280107007d
:100770000af0a70001f0a0004f05be004f04be0024
:1007800000000600889fbe008a9fbe008c1f780074
:10079000450107004c01330003866c006450e10002
:1007a0002e0032006420e100330032006150e1008d
:1007b0002f0032006120e1003100320085855500b4
:1007c000eb07b000090020000804200005003700f6
:1007d0000804440089844c000a00310006034300e9
:1007e00087834b000001530081815b00f8ff3300d9
:1007f0000203be000800a0000804440089844c00e5
:10080000f6ff3900c639dd008301730001003200b4
:10081000130020008904d1000884d3000998a300a4
:10082000050032000800a7000300a0008904d100e1
:100830000884d3008b05e8008904d1000884d30024
:100840000001eb000281d200f100070001f0a100dd
:100850000cf0a70001f0a000240137006420e100a3
:10086000260132000801be000200be00f7ff37007b
:100870006120e100210132006000b800f3ff370081
:100880000000200001f82700f0ff370003f0a2006d
:10089000889fbe008a9fbe008c1f7800020107005f
:1008a000090133006450e1004f0032006420e10090
:1008b0005200320003826c0007003b000905d000a3
:1008c0000306d000820f54000c065d0002003900c0
:1008d0000200320089017800030678008582550005
:1008e00004003d000003fd008103fd008502ea00d5
:1008f0008b854200840f720002003b0060001000f4
:10090000e08018006011b8000005eb007a28e100d3
:100910000a00390006007800c75ddd00f707b20065
:10092000878075002d003700828171000a017800f0
:10093000610560008180d1000080d3008502e9005c
:10094000f9ff3b00060440008784480002003b009a
:1009500060041400e0841c000988a3000700320032
:100960008a81710082817100610164008904d10073
:100970000884d3008b05e800170037000978a3002e
:1009800013003a000b00e000130034008b05e9006f
:100990000804440089844c000a4474000978a300c8
:1009a0000d003a000b00e000070034008b05e90061
:1009b0000804440089844c0001003a000b00200028
:1009c0000978a300f7ff32000001eb0002003700b6
:1009d000828171000a0178008d0007000cf0a700e9
:1009e00001f0a000c10037006420e10002003a00dd
:1009f000838f6c00c10033000801be000200be00fe
:100a0000ba0037000001be00bf0007000470a70055
:100a100003f0a10003f8a30013003a006509b10038
:100a200010003200090035006928e100020035009d
:100a300001002800000005000000400081804800ff
:100a40008502e900fcff3a0000000600f88f420032
:100a5000050035008100d1000080d3008502e80048
:100a6000fcff3a00000006008000eb0000000500db
:100a70000001be00a40007000470a70003f0a1005d
:100a80006509b100160032000d0035006828e1004c
:100a900006003500f0ff2f00f1ff27000300e00003
:100aa00013003b000100280000000500000040008a
:100ab000818048008502e900fcff3a000800370009
:100ac000f88f420002003c008000eb0000000500af
:100ad0008100d1000080d3008502e800fcff3a00cd
:100ae0000300e00002003b0060001000e0801800fe
:100af00000000600889fbe008a9fbe008c1f780001
:100b0000690007007000330003866c006450e10048
:100b1000240032006420e100270032006150e1002f
:100b2000220032006120e100210032008b8542006a
:100b3000eb07b1000134b800003ab80008044200e5
:100b400089844a00013ab8000030b800888040002b
:100b500009014a0004003300000040008180480081
:100b6000020149008b05e900c909dd00830170001d
:100b70000100320013002000c814de004814dd001c
:100b80004709de001200b200c808de0008847000c9
:100b90001f00070001f0a1000cf0a70001f0a00069
:100ba000520037006120e100540032000801be000d
:100bb0000200be00f7ff37006150e100fcff3a0081
:100bc0004e0037006022b800060220000000d0006e
:100bd0008180d2000482d2008582d2000000a00071
:100be0000202520083825a000300310002024200d6
:100bf00083824a000000a1000603e900f3ff3a00e7
:100c000000000600efff07000400be000000060021
:100c100081002000618055000b003d000b0020008a
:100c200061fe2f000100e1001d003400828171008f
:100c3000610164008904d1000884d3000000e80049
:100c4000faff3a00710020006100640003007000a8
:100c5000020060000900320061044400e0844c009e
:100c60000988a500050032008b05e8006808e1004e
:100c700002003a008904d1000884d300f20f20005a
:100c80000258e10005003d00c75ddd00f907b20034
:100c90008980750008007800000006000bf8270026
:100ca0008b007800000005000004be00160007005d
:100cb0000003be000405be000200be0012000700d3
:100cc000844f7500000006000200be006450e10081
:100cd000050036006420e100020036000968a30028
:100ce00001003a000800be000160a0004f06780035
:100cf0004f05be004f04be0000000600f0ff2f00ad
:100d0000f1ff2700f9ff3700c70ade00f107b20044
:100d1000f50fb20008003200e1cf420002003200bd
:100d20000170a00024000500810f70000100320056
:100d30000408050044000500810f700002003a001d
:100d4000140005008502e9000000400081c0480051
:100d5000fcff3b000170a000240005008600a900f4
:100d60008620a900e7416000c10a20009140780078
:100d700082cfb30082c0600083c070008000fd009d
:100d8000ace0b7008000fd0001c7b3008141600006
:100d9000c10a200091407800f2c8b30082c0600010
:100da00083c070008000fd00ace0b7008000fd0053
:100db000680160004311de00610920009140780065
:100dc0000104a10082c070008000fd0096e0b70021
:100dd0008000fd000008b2004700de000040400037
:100de00061092000914078000114a10080c07000ca
:100df0000100780096e0b70000000600211088008e
:100e000030108800000006008a20a9008a40a9004e
:100e1000e7416000c419dd00c10b2000914078005b
:100e2000f2c8b30082c0600083c070008000fd0083
:100e3000bce0b7008000fd00800178000307b2002d
:100e4000c419de00d10b20009140780082cfb3009e
:100e500082c0600083c070008000fd00bde0b7006c
:100e60008000fd00680160004311de000241410086
:100e7000a1092000914078000114a10082c07000f7
:100e80008000fd009ae0b7008000fd000008b2007d
:100e90004700de004200dd00a109200091407800fb
:100ea0000124a10080c07000010078009ae0b70022
:100eb00000000600a1108800b010880000000600a5
:100ec000a1138800b0138800000006000602a800e5
:100ed0000000060006c2bf000008a300fdff3a00a4
:100ee00006c2bf000018a300faff3a0006c2bf0006
:100ef0000028a300f7ff3a0006c2bf000038a30095
:100f0000f4ff3a0006c2bf000048a300f1ff3a0018
:100f100009c2bf000068a300eeff3a00000006000f
:100f20000080fb001010880008c2bf0001c8b30099
:100f3000014060000080fb000000e9004f00de007f
:100f40000000e900000006000642a80000000600bc
:100f50001602a8000000060016c2bf000008a30089
:100f6000fdff3a0016c2bf000018a300faff3a00c6
:100f700016c2bf000028a300f7ff3a0016c2bf0048
:100f80000038a300f4ff3a0016c2bf000048a300d7
:100f9000f1ff3a0019c2bf000068a300eeff3a005b
:100fa000000006000080fb009010880018c2bf00ff
:100fb00001c8b300014060000080fb000000e900b0
:100fc0004f00de000000e900000006001642a80005
:100fd000000006007602a8000000060076c2bf00ee
:100fe0000008a300fdff3a0076c2bf000018a3006e
:100ff000faff3a0076c2bf000028a300f7ff3a00cc
:1010000076c2bf000038a300f4ff3a0076c2bf00ea
:101010000048a300f1ff3a0079c2bf000068a300b6
:10102000eeff3a00000006000080fb0090138800ed
:1010300078c2bf0001c8b300014060000080fb001f
:101040000000e9004f00de000000e900000006009b
:101050007642a800000006000622a8000000060054
:10106000889fbe008a9fbe008c9fbe0080057800ce
:101070008106780002067800800478000005eb0005
:10108000150037000662a8000004eb0003003700db
:101090008c0f5400130031000804e8006f000700b3
:1010a0000004e000faff32000010800080767d002e
:1010b0008904e90002003a0006a2a80001003700f6
:1010c00006a2a9000682a80006c2bf000048a3002d
:1010d000fdff3a000a05e8008b0f5500e9ff3a00d2
:1010e0008004eb00090078004f06be004f05be00eb
:1010f0004f04be000000060006a2a8000682a80059
:10110000000006001622a80000000600889fbe000e
:101110008a9fbe008c9fbe00800578008106780003
:1011200002067800800478000005eb001500370007
:101130001662a8000004eb00030037008c0f540077
:10114000130031000804e800480007000004e00034
:10115000faff32008010800080767d008904e9006b
:1011600002003a0016a2a8000100370016a2a9004a
:101170001682a80016c2bf000048a300fdff3a0077
:101180000a05e8008b0f5500e9ff3a008004eb00e8
:10119000090078004f06be004f05be004f04be0098
:1011a0000000060016a2a8001682a8000000060093
:1011b0007622a80000000600889fbe008a9fbe001d
:1011c0008c9fbe00800578008106780002067800ba
:1011d000800478000005eb00150037007662a80057
:1011e0000004eb00030037008c0f540013003100a3
:1011f0000804e800210007000004e000faff3200c4
:101200008013800080767d008904e90002003a00a6
:1012100076a2a8000100370076a2a9007682a80075
:1012200076c2bf000048a300fdff3a000a05e800af
:101230008b0f5500e9ff3a008004eb0009007800ad
:101240004f06be004f05be004f04be000000060062
:1012500076a2a8007682a8000000060008c2bf009f
:101260000000d100610060000000060018c2bf004d
:101270000000d100610060000000060078c2bf00dd
:0c1280000000d1006100600000000600ca
:020000040000fa
:10000800a08e0000a08e0000a08e0000a08e000030
:10001800a08e0000a08e0000a08e0000a08e000020
:10002800a08e0000a08e0000a08e0000a08e000010
:10003800a08e0000a08e0000a08e0000a08e000000
:020000040000fa
:020000040000fa
:10128c0000950000000000000000000001f90000c3
:10129c0000000000000000000887000004000000af
:1012ac000000000009af0000000000000100000079
:1012bc000a1b000000000000010000000cc300002d
:1012cc0000000000000000000daf00000200000054
:1012dc000000000010ff00000000000000000000f3
:1012ec0011ff0000000000000100000012ff0000d0
:1012fc00000000000100000018ff000000000000ca
:10130c000100000019ff00000000000001000000b7
:10131c0020ff0000000000000000000021ff000082
:10132c00000000000000000026df000001000000ab
:10133c0000000000377300000000000000000000f7
:10134c003a25000004000000000000003b250000ce
:10135c0000000000000000002e2e00000020000005
:10136c002020000020200000202000002020000071
:08137c00202000000000000029
:020000040000fa
:101384000400fa000000eb00000f780006003700ac
:101394009e00780020ca20008080400010c0b30066
:1013a400804878001e0fe800200020009e0f1000e7
:1013b400f7ff34000040eb00bcedb7000040eb0049
:1013c400b2edb7000080eb008080eb00706d880008
:1013d400816d88000080eb008080eb00b06d880098
:1013e400c16d880044340700e0d52000480207009e
:1013f4000004e00036003a00f16d8000e0d52000e2
:1014040080087800f16d80000000eb00d0009800a7
:10141400f16d80000000eb00e0009800f26d8000a8
:101424006000b8007001980001099800f26d800016
:101434006000b8001009980021099800f16d80003f
:10144400c0c5b300c058980010002000000f7800f9
:1014540007003700f16d80001e0078007c0040001a
:101464008100400000c2b300804878001e0fe800ed
:10147400a00020009e0f1000f6ff3400f16d8000e4
:101484000000eb00c0109800f16d80000001200006
:10149400e0109800f26d8000806580009165800006
:1014a4007011980001199800f26d80008065800029
:1014b4009165800010199800211998000040eb00f4
:1014c400b4ecb700100020001007980002003700a9
:1014d4000000eb00100798001e0090000080fa0046
:1014e400000006001400fa00881f780060079800c6
:1014f4007107980002579800135798006e009000e7
:101504004010900050079800b00020001007980089
:101514006e00900080189000701090006e01900092
:1015240010199800211998007e0090006011900015
:10153400020078000080ea008180ea003007980009
:101544005e0090000000e00009003a00ea00470055
:1015540012c0b3006e009000011207000000e0000a
:101564000f003a00b0012000100798000c0037006b
:101574005e0090006f0060000000e0000800320090
:10158400ea00470012c0b3006e009000f411070097
:101594000000e00002003a00b001200010079800ab
:1015a4001e009000fb0f5000bb0032001e00900094
:1015b4000000e000b8003200ea0047006e0090002e
:1015c40084160700504798005e409000e24f500098
:1015d400b10032005e4090000004e000a5003a0033
:1015e4006e009000e010900041079800ce0090003b
:1015f400f003200000806000400798001e50900017
:101604000080fb00100f98001e0890000000e0000e
:10161400040032009e089000e18f50002b0032003d
:10162400990037004e009000e80f500096003200f9
:101634000000eb0010079800d0c6b30010479800d4
:101644000040eb00404798001c0037004e409000db
:101654000080fb00ee0090007c0040000100400090
:1016640010407800104798004e4090000080fb0026
:10167400fe0090007c004000010040001040780013
:10168400004f78001e4090000080fb00d3fb070051
:10169400000478001e80fb00d0fb0700800f54007c
:1016a40003003200b00020001007980076003700d5
:1016b4004e4090000040e800404798004e409000a3
:1016c400ea4f5000e1ff36006f0037004e009000f3
:1016d400be009000010060000000e0006a003a00d3
:1016e4004e009000ef0f5000670032000000eb0046
:1016f40010079800d0c6b300104798007e009000f1
:10170400c0589000a0c2b30080cf5000280032001f
:101714000040eb0040479800220037004e40900004
:101724000080fb00ee0090007c00400001004000bf
:1017340010407800104798004e4090000080fb0055
:10174400fe0090007c004000010040001040780042
:10175400004f7800a0c2b3009e4f10001400320066
:10176400f0c3b3009e4f10000b0032001e409000e7
:101774000080fb0099fb0700000478001e80fb003a
:1017840096fb0700800f540003003200b0002000d5
:1017940010079800060037004e4090000040e80013
:1017a400404798004e409000e74f5000dbff360062
:1017b4007e009000c0609000a0c2b30080cf5000b3
:1017c400310032001e0090000000e0002e003a00bc
:1017d40080c0b30040479800220037004e4090007c
:1017e4000080fb00ee0090007c00400001004000ff
:1017f40010407800104798004e4090000080fb0095
:10180400fe0090007c004000010040001040780081
:10181400004f7800a0c2b3009e4f10001a0032009f
:10182400f0c3b3009e4f10000b0032001e40900026
:101834000080fb0069fb0700000478001e80fb00a9
:1018440066fb0700800f540003003200b000200044
:10185400100798000c0037004e4090000040e8004c
:10186400404798004e409000ea4f5000dbff36009e
:10187400050037000e5090000004e00002003a001a
:101884000000eb00100798005e0090000000e800e4
:101894005007980045ff37001e0090004f04780061
:1018a4000080fa00000006001200fa0050079800b9
:1018b40061079800624f98000000eb00000f780069
:1018c4005e00900090007800410798004e00900060
:1018d400306090000004e00003003a007000200033
:1018e400000f78008d0037005e0090008018900093
:1018f400701090005e019000101998002119980052
:101904006e009000100078000000e00009003a002a
:1019140012c0b300ee0090005e00900010110700aa
:101924000000e00010003a00b0012000000f780031
:101934000d0037006e009000100078006f0060000a
:101944000000e0000800320012c0b300ee00900076
:101954005e009000021107000000e00002003a005f
:10196400b0012000000f7800ee0090005e009000af
:1019740098150700604798006e4090000004e0004e
:1019840003003200b0002000000f7800630037002d
:101994005e0190006000b800700198000109980091
:1019a4005e009000a0009000100090005e01900086
:1019b4003001980041019800de0090000000eb0027
:1019c400d0009800de0090000000eb00e0009800da
:1019d4006e409000e14f500003003a00b000200038
:1019e400000f78002d0037005e0090003001900059
:1019f400c00190004e009000cc1a07001007980018
:101a040021079800bacdbf000004e00006003200b0
:101a1400f11c07000004e0000300320090002000e5
:101a2400000f98003f003700de009000a16d880091
:101a3400b26d8000c36d80001e009000ae00900067
:101a4400800f5100818f5900140032000040eb00d8
:101a5400bcedb7004e0090009080fb001040900059
:101a64000080fb004800dd000100700000017800e8
:101a74001e009000ae009000933307000004e000c5
:101a840002003a0080002000000f78001e00900041
:101a9400ae009000b06d8800c16d88005e019000ba
:101aa400b2089000b0ff2f00008060003009980059
:101ab400ee48900070c7b30080cf5000040032009d
:101ac400ee48900010c6b30080cf50000a003a00e0
:101ad400de009000310890000000a000b0089800db
:101ae4005e019000b2089000d0ff2f0000806000db
:101af40030099800090037005e019000b208900098
:101b0400e0ff2f000080600030099800de009000a4
:101b1400310890000010a000b00898009e007800e2
:101b2400010f98000e0890000080fa0000000600e3
:101b34001c00fa00200f9800320f9800430f980001
:101b44000040eb00204798002e089000100f78000a
:101b54001e007800206090000080fb00500f980069
:101b64005e089000e10f50000d0032005e09900005
:101b7400e30f5100010032001200370080ff2f00f4
:101b8400f1ff20002007980031079800f0ff2f0094
:101b9400f1ff20004007980051079800110037001a
:101ba40080ff2000010020002007980031079800e2
:101bb400f0ff2f0001002000400798005107980013
:101bc4000800370080ff2f00010020002007980044
:101bd40031079800f0ff2f00010020004007980013
:101be400510798002e08900030019000c001900029
:101bf40062079800730798006e019000fe01900040
:101c04001e007800f5200700000f9800110f9800bf
:101c14000e0990009e0990004e009000de00900096
:101c2400800f5100818f590003003a0080c0b30037
:101c3400204798001f0037009e0078004150900014
:101c44000082fb00515090000080fb004800dd0042
:101c54000400700000017800615090000082fb00d5
:101c6400715090000080fb004800dd00040070000b
:101c7400800178000e0890009e089000800f5100ab
:101c8400818f590002003e00a0c0b3002047980095
:101c94000e0990009e0990002e009000be00900056
:101ca400800f5100818f590002003900c0c3b30076
:101cb400204798002e0890000e0990009e0990007d
:101cc40032009800430098003e089000ce0890002f
:101cd40061005000e0805800300f9800410f9800d8
:101ce4003e089000ce089000e00f5000e08f5800ae
:101cf400030032002e4090000004e000b9ff3200df
:101d04002e4090000080fb000080fa0000000600d6
:101d14000800fa00200798000040eb0020479800d4
:101d2400ae0090000040eb00b0609800ae00900060
:101d340002802000f00f2000000061009141780033
:101d4400e0c86100914870004811de001140900025
:101d540060406000024070009040980033340700f7
:101d6400000f78001e007800104078000004e000a6
:101d74000500320060c0b3002047980060c0b30083
:101d8400b4ecb7003c0037001e00780090007800e7
:101d940000102000008060000000e00027003200f6
:101da4001e007800100090006101b800ae009000a1
:101db400f00f2000000261000158900060406000b4
:101dc40004407000805898004812de0011589000ba
:101dd400604060000440700090589800f00f2000ac
:101de400008261002158900060406000044070004f
:101df400a05898004819de003158900060406000f7
:101e040002407000b05898001e00780090009000c6
:101e140000202000808f50000800360010c2b3005c
:101e24002047980010c2b300b4ecb7002e409000d5
:101e34000080fb0030079800120037002e0090004d
:101e440013000700204798002e4090000004e00093
:101e540009003a002e0090003e0107002047980038
:101e64002e4090000004e00003003a00ae00900011
:101e740010c0b300b06098002e4090000080fb00ba
:101e8400300798003e0090000080fa000000060031
:101e94000e00fa00300798000040eb00304798002d
:101ea4003e0090009080fb00104090000080fb00fa
:101eb4004800dd0001007000000178006000b800f7
:101ec40081320700e14f50000500320080c0b300aa
:101ed4003047980080c0b300b4ecb7001701370056
:101ee4003e0090009080fb00104090000080fb00ba
:101ef4004800dd0001007000000f78001e0078002b
:101f0400e0f8930050c5b30080cf5000a3003a001e
:101f14001e007800f0f89300a0cab30080cf5000f0
:101f24009e003a003e0090009080fb00104090001c
:101f34000080fb004800dd00010070006103200008
:101f44003d1907008040780060c4b30080cf500082
:101f540043003a003e0090009080fb001040900047
:101f64000080fb004800dd000100700071032000c8
:101f7400311907008040780010c4b30080cf5000ae
:101f840037003a003e0090009080fb001040900023
:101f94000080fb004800dd00010070008103200088
:101fa400251907008040780040c5b30080cf500059
:101fb4002b003a003e0090009080fb0010409000ff
:101fc4000080fb004800dd00010070009103200048
:101fd400191907008040780010c3b30080cf500067
:101fe4001f003a003e0090009080fb0010409000db
:101ff4000080fb004800dd00010070006102200049
:102004000d1907008040780090c2b30080cf5000c3
:1020140013003a003e009000a0409000e0c0600031
:1020240021409800b0409000e0c06000314098002a
:10203400c0409000e0c0600041409800d040900053
:10204400e0c0600051409800be00900020c0b30082
:10205400a06098000000eb0050079800ba00370019
:102064003e0090009080fb00104090000080fb0038
:102074004800dd000100700021052000ee18070073
:102084008040780060c4b30080cf500043003a0021
:102094003e0090009080fb00104090000080fb0008
:1020a4004800dd000100700031052000e21807003f
:1020b4008040780010c4b30080cf500037003a004d
:1020c4003e0090009080fb00104090000080fb00d8
:1020d4004800dd000100700041052000d61807000b
:1020e4008040780040c5b30080cf50002b003a00f8
:1020f4003e0090009080fb00104090000080fb00a8
:102104004800dd000100700051052000ca180700d6
:102114008040780030c3b30080cf50001f003a00e5
:102124003e0090009080fb00104090000080fb0077
:102134004800dd000100700021042000be180700e3
:102144008040780090c2b30080cf500013003a0062
:102154003e009000a0409000e0c060002140980044
:10216400b0409000e0c0600031409800c040900052
:10217400e0c0600041409800d0409000e0c06000a2
:1021840051409800be00900030c0b300a060980099
:102194008000eb00510798006b0037003e00900070
:1021a4009080fb00104090000080fb004800dd00a0
:1021b40001007000200798002e009000e0f89300c2
:1021c40050c5b30080cf500005003a002e009000a7
:1021d400f0f89300a0cab30080cf5000050032008d
:1021e40040c0b300b4ecb70040c0b300304798001f
:1021f40052003700ae00900061c093000082fb00e3
:1022040071c093000080fb004800dd0004007000f2
:102214000001780001c893000082fb0011c89300fc
:102224000080fb004800dd0004007000800178009d
:10223400be009000f00f20000002610021409000d9
:102244006040600004407000a04098004812de0026
:10225400314090006040600004407000b04098003d
:10226400f00f200000826100414090006040600057
:1022740004407000c04098004819de0051409000ae
:102284006040600002407000d04098002e00900032
:10229400a0c09300214798002e4090000080fb00ce
:1022a400400798004e009000ee0f50001f003e00c3
:1022b40010002000ce0090000100dd0060079800af
:1022c40000052400ee009000008060000000e000a3
:1022d4000e003a0000802100ee00900000806000b3
:1022e4000000e0000d003a00ee0090006280600003
:1022f4000000e00001003a000c003700be0090002e
:1023040010c0b300a06098000c003700be0090001d
:1023140020c0b300a060980008003700be00900001
:1023240030c0b300a06098000400370050c0b30070
:10233400b4ecb70050c0b300304798003e40900062
:102344000080fb00500798005e0090000080fa00b7
:10235400000006001c00fa00889fbe008a9fbe0091
:10236400400f98000040eb00204f98000000eb0065
:10237400100798000000eb00000f78004e08900052
:102384009080fb00104090000080fb004800dd00be
:102394000100700080017800ce0890002140900078
:1023a4000081fb00314090000080fb004800dd000c
:1023b4000200700000027800414090000081fb00a0
:1023c400514090000080fb004800dd0002007000d6
:1023d40080027800030178000400be003a3107004f
:1023e400e14f50000300320080c0b300204f98003a
:1023f400eb0237004e0890009080fb0010409000e4
:102404000080fb004800dd000100700040079800d8
:10241400000037004e009000e0f8930050c5b30070
:1024240080cf500005003a004e009000f0f8930071
:10243400a0cab30080cf50000300320030c0b30004
:10244400204f9800210237004e0890009080fb0036
:10245400104090000080fb004800dd000100700087
:10246400e1002000fd170700200798004e089000a7
:102474009080fb00104090000080fb004800dd00cd
:1024840001007000d1002000eb17070080407800a5
:102494004e08900011609800ce08900021409000f2
:1024a4000082fb00314090000080fb004800dd000a
:1024b4000400700000017800414090000082fb009d
:1024c400514090000080fb004800dd0004007000d3
:1024d400800178002e0090000100200002014000dd
:1024e40083814800ce089000f00f200000026100b4
:1024f400614090006040600004407000e04098003b
:102504004812de007140900060406000044070009a
:10251400f0409800f00f2000008261000148900014
:102524006040600004407000804898004819de0054
:10253400114890006040600002407000904898008c
:102544004e0890009080fb00104090000080fb003b
:102554004800dd000100700001012000b6170700eb
:10256400804078004e089000016098004e0890006a
:102574009080fb00104090000080fb004800dd00cc
:102584000100700061012000b41707006101b80068
:10259400ce089000f00f2000000261004158900026
:1025a4006040600004407000c05898004812de008b
:1025b400515890006040600004407000d05898006a
:1025c400f00f2000008261006158900060406000bc
:1025d40004407000e05898004819de0071589000db
:1025e4006040600002407000f0589800ce089000ef
:1025f400415890000082fb00515890000080fb007d
:102604004800dd000400700000017800615890006b
:102614000082fb00715890000080fb004800dd0040
:102624000400700080017800e00f5100e08f590031
:1026340020003a004e0890009080fb00104090006b
:102644000080fb004800dd00010070004102200012
:102654009c1707000001be00ce089000f00f200078
:102664000002610041589000604060000440700026
:10267400c05898004812de00515890006040600035
:1026840004407000d0589800f00f200000826100d0
:10269400615890006040600004407000e058980069
:1026a4004819de00715890006040600002407000dc
:1026b400f0589800ce089000614090000081fb0023
:1026c400714090000080fb004800dd0002007000b3
:1026d40000057800014890000081fb00114890003b
:1026e4000080fb004800dd000200700080057800d7
:1026f4004e089000006090000084fb000900200058
:10270400ce089000415890000081fb005158900081
:102714000080fb004800dd00020070000003780028
:10272400615890000081fb00715890000080fb000c
:102734004800dd0002007000800378008800780003
:1027440006007800000ab80007c0b9000501780047
:102754000001410009b0b900000141008202780083
:102764000a0142008b814a00ce089000f00f20003d
:102774000002610021489000604060000440700045
:10278400a04898004812de00314890006040600084
:1027940004407000b0489800f00f200000826100ef
:1027a400414890006040600004407000c0489800b8
:1027b4004819de00514890006040600002407000fb
:1027c400d04898004e0890009080fb001040900084
:1027d4000080fb004800dd000100700011012000b2
:1027e4001e17070080017800ce089000f00f20002b
:1027f4000081610021509000604060000240700040
:10280400a05098004819de003150900060406000ec
:1028140002407000b05098004e0890009080fb0079
:10282400104090000080fb004800dd0001007000b3
:10283400310120000917070001002000000f980053
:10284400110f98000e0890009e089000e00f5000b1
:10285400e08f58000a003a004e0890009080fb0078
:10286400104090000080fb004800dd000100700073
:102874000102200013170700000f9800110f9800a1
:102884004e0890009080fb00104090000080fb00f8
:102894004800dd0001007000b1002000ef160700c1
:1028a400300798003e0090000000e0000400320071
:1028b4003e009000610060000004e000030032006c
:1028c40010c2b300204f980000013700ce089000da
:1028d400215090000081fb00315090000080fb00eb
:1028e4004800dd0002007000c500dd003e009000dd
:1028f400008040000000e9003e0190001100090042
:102904000280d80001002000200f9800310f9800a9
:102914002e0090006105b8004e0890000060900001
:102924000084fb0009002000ce089000415890006c
:102934000081fb00515890000080fb004800dd003e
:102944000200700000037800615890000081fb00d1
:10295400715890000080fb004800dd000200700008
:10296400800378008800780006007800000ab80028
:1029740007c0b900050178000001410009b0b900a1
:1029840000014100820278000a0142008b814a0062
:102994002e089000be089000020140008381480088
:1029a4000e0890009e08900002005000838058009a
:1029b40060079800710798004e089000106090001e
:1029c4000081fb00030020006e009000fe009000d8
:1029d4007bf807000001be00ce089000f00f200035
:1029e40000026100415090006040600004407000ab
:1029f400c05098004812de005150900060406000c2
:102a040004407000d0509800f00f20000082610054
:102a1400615090006040600004407000e0509800f5
:102a24004819de0071509000604060000240700060
:102a3400f0509800ce089000415090000082fb00b6
:102a4400515090000080fb004800dd00040070003d
:102a540000017800615090000082fb0071509000ea
:102a64000080fb004800dd00040070008001780055
:102a740040ff200001002000800f5100818f590089
:102a840004003e00ce08900010c0b300a06098007f
:102a94001b003700ce089000415090000082fb00dc
:102aa400515090000080fb004800dd0004007000dd
:102ab40000017800615090000082fb00715090008a
:102ac4000080fb004800dd000400700080017800f5
:102ad40040ff2f0001002000800f5100818f59001a
:102ae40004003e00ce08900020c0b300a06098000f
:102af40003003700ce08900030c0b300a0609800f7
:102b04004e08900020609000e34f500035003a00da
:102b14004e0890009080fb00104090000080fb0065
:102b24004800dd0001007000c102200065160700a6
:102b34008065880091658800ce0890002148900047
:102b44000082fb00314890000080fb004800dd005b
:102b54000400700000017800414890000082fb00ee
:102b6400514890000080fb004800dd000400700024
:102b7400800178002e089000be08900002014000f9
:102b840083814800ce089000f00f2000000261000d
:102b9400614890006040600004407000e048980084
:102ba4004812de00714890006040600004407000ec
:102bb400f0489800f00f200000826100015090005e
:102bc4006040600004407000805098004819de00a6
:102bd40011509000604060000240700090509800d6
:102be400340037006000b800806588009165880073
:102bf400ce089000214890000082fb0031489000ec
:102c04000080fb004800dd00040070000001780033
:102c1400414890000082fb00514890000080fb0076
:102c24004800dd000400700080017800ce089000a8
:102c3400215090000082fb00315090000080fb0086
:102c44004800dd00040070004400de0001002000a4
:102c54000201400083814800ce089000f00f20005c
:102c64000002610061489000604060000440700010
:102c7400e04898004812de0071489000604060000f
:102c840004407000f0489800f00f200000826100ba
:102c94000150900060406000044070008050980033
:102ca4004819de001150900060406000024070003e
:102cb40090509800be00900000202000808f5000ab
:102cc4000200360010c2b300204f98004e08900056
:102cd40020609000e34f50000d0032002e48900019
:102ce4000004e000ae0032004e009000a0c090004e
:102cf40090c2b30080cf5000050032004e00900017
:102d0400a0c0900080c2b30080cf5000a4003a005d
:102d1400ce009000315090000081fb0041509000a3
:102d24000080fb004800dd00020070000000e000ad
:102d34003a003a004e009000407090000004e00019
:102d440036003a004e009000507090000004e000fd
:102d540032003a004e009000607090000004e000e1
:102d64002e003a004e009000707090000004e000c5
:102d74002a003a004e009000007890000004e00021
:102d840026003a004e009000107890000004e00005
:102d940022003a004e009000207890000004e000e9
:102da4001e003a004e009000307890000004e000cd
:102db4001a003a004e009000407890000004e000b1
:102dc40016003a004e009000507890000004e00095
:102dd40012003a004e009000607890000004e00079
:102de4000e003a004e009000707890000004e0005d
:102df4000a003a004e009000a0c0900090c2b300b8
:102e040080cf5000070032004e009000a0c0900018
:102e140080c2b30080cf50000200320030c0b30043
:102e2400204f98002e4890000004e000310032004a
:102e34001e0090000000e0002e003a001000200068
:102e4400100798004e0890009080fb0010409000fe
:102e54000080fb004800dd00010070008002780063
:102e6400ce089000214090000082fb003140900089
:102e74000080fb004800dd000400700000017800c1
:102e8400414090000082fb00514090000080fb0014
:102e94004800dd000400700080017800ce0090003e
:102ea400217090000082fb00317090000080fb00d4
:102eb4004800dd0004007000010020000200400012
:102ec40083804800050178007f2e0700e14f500001
:102ed4000500320080c0b300b4ecb70080002000cd
:102ee400500f9800360037000040eb00204f980048
:102ef40048fd37002e4890000004e000280032000e
:102f04001e00e00026003a0010002000000f7800a8
:102f14004e0890009080fb00104090000080fb0061
:102f24004800dd000100700080027800ce089000a7
:102f3400214090000082fb00314090000080fb00a3
:102f44004800dd000400700000017800414090005a
:102f54000082fb00514090000080fb004800dd002f
:102f6400040070008001780066004100e0804900a0
:102f740005017800542e0700e14f5000050032008f
:102f840080c0b300b4ecb70080002000500f98005c
:102f94000b0037000040eb00204f98001dfd370068
:102fa4002e4890000004e000020032002e489000f9
:102fb400b4ecb7002e4890000080fb00500f98003e
:102fc4005e0890004f05be004f04be000080fa006a
:102fd400000006000600fa00200798006000b80010
:102fe400008fbe002e0090002008900001002000f9
:102ff400008fbe001e00be00c000dd0000002000e7
:10300400008fbe002e0090005008900001002000a8
:103014001e1f70001e9770001e00be000080fa0084
:10302400000006001400fa00500798006107980099
:1030340072079800030f98006000b80020079800fa
:10304400310798005e009000ee009000e00f500001
:10305400e08f5800070032007e0190008e09900036
:103064001000200001002000800f5100818f5900c2
:1030740003003e000080eb00100f98001b01370096
:103084007e0090008e08900061015000e08158009d
:103094005e009000ee009000800f5100818f590077
:1030a400030031008080eb00110f98000f013700fe
:1030b400bacdbf000004e000060032004617070046
:1030c4000004e000030032000081eb00120f9800be
:1030d4000601370000802000022020008000eb0061
:1030e40045f5070000802000400798005e0090002e
:1030f400ee009000008fbe001e00be0012ec230004
:1031040003002000aef607004e09dd00c200de0019
:10311400810071004e00dd002007980031079800ff
:103124001e00be0012ec230003002000b4f60700ca
:10313400008fbe001e00be00f2032000030020002a
:103144009ff607004609dd00ca01de008301710015
:103154004601dd002e009000be00900002007000c9
:103164008380700020079800310798001e00be007d
:10317400f203200003002000a1f60700008fbe0028
:1031840010002000010020003e014000ae814800f4
:103194002e009000be00900002007000838070003a
:1031a40020079800310798002e009000be00900080
:1031b4004008de0001002000bfe9b7002e009000a7
:1031c400be0090004809dd004800de0000007100e8
:1031d400c808de00c0e9b7002e009000c1e9b700be
:1031e4007e0190008e0990005e009000ee00900039
:1031f4000001510081815900ce009000f00f2000a1
:103204000002610021c89300604060000440700027
:10321400a0c89b004812de0031c8930060406000e3
:1032240004407000b0c89b00f00f200000826100d1
:1032340041c893006040600004407000c0c89b0017
:103244004819de0051c893006040600002407000dd
:10325400d0c89b00ce00900021c893000082fb00e0
:1032640031c893000080fb004800dd0004007000ba
:103274000001780041c893000082fb0051c893000c
:103284000080fb004800dd0004007000800178002d
:103294008003210001002000800f5100818f59001c
:1032a40004003e00ce00900010c0b300a0c09b00fc
:1032b4001b003700ce00900021c893000082fb0061
:1032c40031c893000080fb004800dd00040070005a
:1032d4000001780041c893000082fb0051c89300ac
:1032e4000080fb004800dd000400700080017800cd
:1032f400f0d52f00f1032000800f5100818f590079
:1033040004003e00ce00900060c0b300a0c09b004b
:10331400030037008081eb00130f9800730037001f
:10332400ce0090005e019000f00f200000016100cb
:1033340061c093006040600002407000e0c09b00e8
:103344005e0090004801de0071c0930060406000a0
:1033540002407000f0c09b006e019000f00f20004e
:103364000001610001c893006040600002407000e9
:1033740080c89b006e0090004801de0011c89300d5
:10338400604060000240700090c89b005e019000a5
:10339400ee0190007e0090008e0890000200400034
:1033a400838048000081eb008081eb00021f400015
:1033b400039748001e00be0012ec23000300200007
:1033c400fff50700ce09dd00c200de008180710038
:1033d4004e00dd0020079800310798001e00be0053
:1033e40012ec23000300200005f60700008fbe0046
:1033f4001e00be00f203200003002000f0f50700c9
:103404004609dd00ca01de00830171004601dd00ca
:103414002e009000be0090000200700083807000b7
:1034240020079800310798001e00be00f203200018
:1034340003002000f2f50700008fbe0010002000fa
:10344400010020003e014000ae8148002e009000a3
:10345400be00900002007000838070002007980076
:10346400310798002e009000be0090004008de0056
:1034740001002000c3e9b7002e009000be009000b8
:103484004809dd004800de0000007100c808de00c5
:10349400c4e9b7002e009000c5e9b700ce00900043
:1034a4000040eb00e0789b00ce00900050c5b300d4
:1034b400e0f89b00ce009000a0cab300f0f89b0097
:1034c40013c0b300028020006000b800822d070002
:1034d400e14f5000030032008081eb00130f98008d
:1034e400020037000000eb00100f98001e08900047
:1034f4000080fa00000006006c00fa00889fbe00fd
:103504008a9fbe0060c798004227980053279800fe
:1035140061279800200220000e004000000f980050
:103524000040eb00b4ecb7000040eb00bcedb7008a
:103534000040eb00b2edb7000080eb008080eb00b0
:10354400706d8800816d88000080eb008080eb0046
:10355400b06d8800c16d88008e0890000280200044
:10356400f00f20000000610091417800e0c8610084
:10357400914870004811de001140900060406000e6
:103584000240700090409800db2b0700272e0700b4
:10359400000f78001e007800104078000004e0005e
:1035a4000500320060c0b300b4ecb7000082eb0049
:1035b400142f9800f5083700028020006000b8003e
:1035c400c12c07000004e00005003a00b0c1b300bc
:1035d400b4ecb7000080eb00102f9800eb08370024
:1035e4000e0890009080fb00104090000080fb00cb
:1035f4004800dd0001007000100f98001e089000c4
:10360400e0f8930050c5b30080cf50009a003a0010
:103614001e089000f0f89300a0cab30080cf5000b9
:1036240095003a000e0890009080fb001040900036
:103634000080fb004800dd000100700061032000f1
:103644007d1307008040780060c4b30080cf500031
:1036540057003a000e0890009080fb001040900044
:103664000080fb004800dd000100700071032000b1
:10367400711307008040780010c4b30080cf50005d
:103684004b003a000e0890009080fb001040900020
:103694000080fb004800dd00010070008103200071
:1036a400651307008040780040c5b30080cf500008
:1036b4003f003a000e0890009080fb0010409000fc
:1036c4000080fb004800dd00010070009103200031
:1036d400591307008040780010c3b30080cf500016
:1036e40033003a000e0890009080fb0010409000d8
:1036f4000080fb004800dd00010070006102200032
:103704004d1307008040780090c2b30080cf500072
:1037140027003a000000eb00001798006ec09000ec
:103724000000fb00002f98008e2890000100e000ac
:10373400090032000e299000e10f5100010032000f
:1037440043003700f0c1b300b4ecb7008081eb0054
:10375400132f98008d0837000e089000a0409000a9
:10376400e0c0600021409800b0409000e0c06000dc
:1037740031409800c0409000e0c060004140980093
:10378400d0409000e0c06000514098000e089000c6
:10379400f0fa07000004e0002d003200b0c1b300cd
:1037a400b4ecb7000082eb00142f980077083700c0
:1037b40000802000001798008e10900061c09300d4
:1037c4000082fb0071c093000080fb004800dd0014
:1037d400040070000001780001c893000082fb001f
:1037e40011c893000080fb004800dd000400700055
:1037f400800178008e089000f00f20000002610024
:10380400214090006040600004407000a040980097
:103814004812de00314090006040600004407000b7
:10382400b0409800f00f20000082610041409000f9
:103834006040600004407000c04098004819de00f9
:10384400514090006040600002407000d0409800f9
:103854006ec090000000fb00702798007e2090004e
:103864000000e0002f053200fe209000e18f5000a0
:10387400060032003405370040c0b300b4ecb70092
:103884000081eb00122f9800400837008e10900042
:1038940021c893000082fb0031c893000080fb0024
:1038a4004800dd00040070000001780041c8930066
:1038b4000082fb0051c893000080fb004800dd003b
:1038c4000400700080017800620f9800730f980064
:1038d4006e099000fe099000800321000100200081
:1038e400800f5100818f590071003e008e089000b6
:1038f40010c0b300a06098008e10900010c0b300f8
:10390400a0c09b0013c0b300028020006000b80078
:10391400712c07000004e00005003a0090c0b300d9
:10392400b4ecb7008081eb00132f98001708370020
:103934006e099000fe099000700221000100200031
:10394400800f5100818f5900040036008e089000ca
:1039540020c0b30090609800030037008e089000e8
:1039640010c0b30090609800008020000220200066
:103974008000eb0020f3070020c3b3003ae8b7004f
:103984000e089000106090000080fb0000004000d2
:103994006101b9006e089000fe0890000201400029
:1039a40083814800f0fd2f00f1ff2f00020040004a
:1039b4008380480050079800610798000e08900023
:1039c400106090008080fb00501520000088b90032
:1039d4000080e800cf80de0030079800410798009f
:1039e4003e019000ce0190005e009000ee00900039
:1039f400020040008380480061005000e0805800cd
:103a04003e019000ce0190006df40700500798002d
:103a1400610798008e08900020c0b3008060980071
:103a24008e0890002150900060406000a0509800e3
:103a340031509000604060000014a000b050980025
:103a44008e0890005e019000f00f200000016100dc
:103a5400415890006040600002407000c0589800d7
:103a64005e0090004801de00515890006040600004
:103a740002407000d05898006e019000f00f2000b2
:103a840000016100615890006040600002407000d5
:103a9400e05898006e0090004801de0071589000d4
:103aa4006040600002407000f05898001101370037
:103ab4006e099000fe099000f0d52f00f10320005c
:103ac400800f5100818f59008c003e008e089000b9
:103ad40020c0b300a06098008e10900060c0b300b6
:103ae400a0c09b0013c0b300028020006000b80097
:103af400f92b07000004e00005003a0090c0b30071
:103b0400b4ecb7000082eb00142f98009f07370035
:103b14006e099000fe09900080de2f00f1ff2f0057
:103b24000200400083804800400f9800510f980025
:103b34008e08900010c0b300906098000d0037000c
:103b44000e089000106090000080fb000000400010
:103b5400804078000e089000116098004e08900094
:103b6400de0890008100d1000080d300400f98004f
:103b7400510f98004e099000de099000d0fe2f00ee
:103b840001002000800f5100818f5900ecff3e009e
:103b94000e0890009060900000c8b30080cf5000e1
:103ba4000500360040c0b300b4ecb7000080eb0061
:103bb400102f980075073700008020000220200095
:103bc4008000eb008cf2070060c3b3003ae8b70052
:103bd4000e089000106090000080fb000000400080
:103be4006101b9006e089000fe08900002014000d7
:103bf40083814800f0fd2f00f1ff2f0002004000f8
:103c04008380480050079800610798000e089000d0
:103c1400106090000080fb004800dd000080e80098
:103c2400cf80de0030079800410798003e019000e5
:103c3400ce0190005e009000ee0090000200400073
:103c44008380480061005000e08058003e019000ed
:103c5400ce019000daf3070050079800610798003e
:103c64008e08900020c0b300806098008e089000f9
:103c74002150900060406000a050980031509000a6
:103c8400604060000014a000b05098008e089000be
:103c94005e019000f00f2000000161004158900087
:103ca4006040600002407000c05898005e009000c0
:103cb4004801de00515890006040600002407000ee
:103cc400d05898006e019000f00f200000016100b0
:103cd400615890006040600002407000e058980015
:103ce4006e0090004801de00715890006040600052
:103cf40002407000f05898007e0037008e08900053
:103d040030c0b300a06098008e109000b0c0b30023
:103d1400a0c09b0013c0b300028020006000b80064
:103d24006d2b07000004e00005003a0090c0b300ca
:103d3400b4ecb7008080eb00112f98001307370014
:103d44006e099000fe099000420f9800530f9800ee
:103d54008e08900010c0b300906098000d003700ea
:103d64000e089000106090000080fb0000004000ee
:103d7400804078000e089000116098004e08900072
:103d8400de0890008100d1000080d300400f98002d
:103d9400510f98004e099000de099000e0ff2b00bf
:103da400f1032000800f5100818f5900ecff3e0089
:103db4000e0890009060900000c8b30080cf5000bf
:103dc4000500360040c0b300b4ecb7008081eb00be
:103dd400132f9800ed0637000080200002202000f9
:103de4008000eb0004f207006e099000fe099000c9
:103df40000fe2f00f1ff2f000200400083804800e6
:103e040050079800610798000e0890001060900019
:103e14000080fb004700dd000000e800cf80de00ea
:103e240030079800410798003e019000ce019000b1
:103e34005e009000ee009000020040008380480085
:103e440061005000e08058003e019000ce019000d7
:103e54005bf3070050079800610798008e089000f4
:103e640020c0b300806098008e089000215090001c
:103e740060406000a05098003150900060406000a5
:103e84000014a000b05098008e0890005e019000cd
:103e9400f00f200000016100415890006040600074
:103ea40002407000c05898005e0090004801de0097
:103eb400515890006040600002407000d058980053
:103ec4006e019000f00f2000000161006158900025
:103ed4006040600002407000e05898006e0090005e
:103ee4004801de007158900060406000024070009c
:103ef400f0589800b0ceb30000e8b700c0c3b300d8
:103f040001e8b70000c9b30002e8b700d0c4b300a9
:103f140003e8b70030c4b30004e8b70080c4b300ba
:103f240005e8b70000c5b30006e8b70000c2b30057
:103f340007e8b70060c4b30008e8b70010c4b300d2
:103f440009e8b70040c5b3000ae8b7000040eb0039
:103f54000be8b70020c0b3000ce8b7000e089000cf
:103f6400106090000de8b7000e08900020609000eb
:103f7400e14f5000040032000e08900020609000d1
:103f8400e24f500063013a0080c0b3000ee8b7006e
:103f94000040eb000fe8b7008e089000214090002d
:103fa4000082fb00314090000080fb004800dd00ef
:103fb4000400700000017800414090000082fb0082
:103fc400514090000080fb004800dd0004007000b8
:103fd4008001780068014100e08149008e0890006a
:103fe400f00f20000002610061409000604060001a
:103ff40004407000e04098004812de0071409000d8
:104004006040600004407000f0409800f00f200011
:10401400008261000148900060406000044070002c
:10402400804898004819de00114890006040600004
:10403400024070009048980020c0b30010e8b70018
:104044000040eb0011e8b70020c0b30012e8b7004d
:104054000040eb0013e8b7000040eb0014e8b700a1
:1040640080cfb30015e8b7005e00900016e8b700f3
:104074005e009000ee009000480add004800de007b
:1040840000007200c808de0017e8b700f0c3b300f0
:1040940018e8b7000040eb0019e8b70000c0eb00d7
:1040a4001ae8b7000040eb001be8b7008e08900048
:1040b400214090000082fb00314090000080fb0012
:1040c4004800dd00040070000001780041409000c9
:1040d4000082fb00514090000080fb004800dd009e
:1040e4000400700080017800024078001ce8b700ea
:1040f4008e089000214090000082fb003140900027
:104104000080fb004800dd0004007000000178001e
:10411400414090000082fb00514090000080fb0071
:104124004800dd000400700080017800481add00ba
:104134004810de0000007200c818de001de8b70059
:104144008e089000214090000082fb0031409000d6
:104154000080fb004800dd000400700000017800ce
:10416400414090000082fb00514090000080fb0021
:104174004800dd0004007000800178004018de0073
:10418400010020001ee8b7008e0890002140900036
:104194000082fb00314090000080fb004800dd00fd
:1041a4000400700000017800414090000082fb0090
:1041b400514090000080fb004800dd0004007000c6
:1041c400800178004818de00010020001fe8b700d5
:1041d4006e08900020e8b7006e089000fe0890007a
:1041e4004809dd004800de0000007100c808de0058
:1041f40021e8b7006e089000fe0890004008de0039
:104204000100200022e8b7006e089000fe0890002c
:104214004808de000100200023e8b7000040eb005e
:1042240024e8b7000040eb0025e8b70090c2b300d3
:1042340026e8b7004e2090008040780000c0eb00d4
:1042440000c0600027e8b7004e209000de209000f8
:10425400202f9800312f98002e289000be2890001f
:10426400e00f5000e08f580006003d002e2990001a
:10427400be299000f20fb0000380b000222f9800f6
:10428400332f98002e299000be299000481add0093
:104294004810de0000007200c898de0080407800fc
:1042a40000c0eb0000c0600028e8b7004e2090007a
:1042b400de209000402f9800512f98004e28900047
:1042c400de289000e00f5000e08f580008003d0009
:1042d400f0ff2f00010020004e299000de299000fd
:1042e4000201400083814800422f9800532f980018
:1042f4004e299000de2990004098de00cf80de0039
:104304008040780000c0eb0000c0600029e8b700de
:104314004e209000de209000602f9800712f9800ae
:104324006e289000fe289000e00f5000e08f5800a7
:1043340008003d00f0ff2f00f10f20006e299000cf
:10434400fe2990000201400083814800622f9800fa
:10435400732f98006e299000fe2990004898de0083
:10436400cf80de008040780000c0eb0000c0600019
:104374002ae8b7006e2090000000e0003d00320003
:104384006000b80010079800210798001400370057
:104394001e009000ae0090000001be00b202b0000a
:1043a4000380b0001e009000800078006e20900012
:1043b4000080400010407800804078000080200099
:1043c40000004100014878001e009000ae009000fb
:1043d40061004000e0804800100798002107980021
:1043e4001e009000800078006e2090000080400045
:1043f400104078000004e000160032001e01900016
:10440400ae019000a000200001002000800f5100a8
:10441400818f5900deff36000e0037001e00900029
:10442400ae009000b002b0000180b0000280200015
:104434008200400000c2b300804878001e00900053
:10444400ae00900061004000e08048001007980032
:10445400210798001e019000ae019000a0002000ea
:1044640001002000800f5100818f5900ebff3600be
:10447400190037006000b800100798002107980061
:104484000e0037001e009000ae009000b002b00095
:104494000180b00002802000820040000040eb0058
:1044a400804878001e009000ae009000610040003b
:1044b400e080480010079800210798001e01900032
:1044c400ae019000a000200001002000800f5100e8
:1044d400818f5900ebff360060c4b30036e8b700a3
:1044e40010c4b30037e8b70040c5b30038e8b700dc
:1044f40010c3b30039e8b70000c2b3003be8b7000b
:1045040000c2b3003ce8b70000c2b3003de8b70006
:10451400a201370000c2b3000ee8b7000040eb0070
:104524000fe8b7008e089000214090000082fb0045
:10453400314090000080fb004800dd000400700062
:1045440000017800414090000082fb00514090003f
:104554000080fb004800dd0004007000800178004a
:104564000202b0000380b0008e089000f00f20001b
:1045740000026100614090006040600004407000ef
:10458400e04098004812de007140900060406000f6
:1045940004407000f0409800f00f20000082610099
:1045a400014890006040600004407000804898001a
:1045b4004819de001148900060406000024070001d
:1045c4009048980020c0b30010e8b7000040eb000a
:1045d40011e8b7000040eb0012e8b7000040eb0020
:1045e40013e8b7000040eb0014e8b70080cfb30035
:1045f40015e8b7000040eb0016e8b7000040eb00f8
:1046040017e8b700f0c3b30018e8b7000040eb00a8
:1046140019e8b70000c0eb001ae8b7000040eb004f
:104624001be8b7008e089000214090000082fb0038
:10463400314090000080fb004800dd000400700061
:1046440000017800414090000082fb00514090003e
:104654000080fb004800dd00040070008001780049
:10466400024078001ce8b7008e08900021409000ba
:104674000082fb00314090000080fb004800dd0018
:104684000400700000017800414090000082fb00ab
:10469400514090000080fb004800dd0004007000e1
:1046a40080017800481add004810de000000720026
:1046b400c818de001de8b7008e0890002140900065
:1046c4000082fb00314090000080fb004800dd00c8
:1046d4000400700000017800414090000082fb005b
:1046e400514090000080fb004800dd000400700091
:1046f400800178004018de00010020001ee8b700a9
:104704008e089000214090000082fb003140900010
:104714000080fb004800dd00040070000001780008
:10472400414090000082fb00514090000080fb005b
:104734004800dd0004007000800178004818de00a5
:10474400010020001fe8b7006e08900020e8b700c1
:104754006e089000fe0890004809dd004800de0065
:1047640000007100c808de0021e8b7006e08900060
:10477400fe0890004008de000100200022e8b70097
:104784006e089000fe0890004808de00010020003a
:1047940023e8b7005e00900024e8b7005e009000b4
:1047a400ee009000c809dd004800de0000807100c2
:1047b400c808de0025e8b7005e009000ee00900017
:1047c4004008de000100200026e8b7005e009000eb
:1047d400ee0090004808de000100200027e8b70042
:1047e4000040eb0028e8b7000040eb0029e8b700e0
:1047f4000040eb002ae8b7000040eb002be8b700cc
:1048040020c0b3002ce8b7000040eb002de8b7004f
:104814000040eb002ee8b7000040eb002fe8b700a3
:1048240010c0b30030e8b7000040eb0031e8b70037
:104834000040eb0032e8b7000040eb0033e8b7007b
:104844000040eb0034e8b7000040eb0035e8b70067
:104854000040eb0036e8b7000040eb0037e8b70053
:104864000040eb0038e8b7000040eb0039e8b7003f
:104874000040eb003ae8b7000040eb003be8b7002b
:104884000040eb003ce8b7000040eb003de8b70017
:104894000040eb003ee8b7000040eb003fe8b70003
:1048a4000040eb0040e8b7000040eb0041e8b700ef
:1048b40090c2b30042e8b7004e20900080407800d8
:1048c40000c0eb0000c0600043e8b7004e20900039
:1048d400de20900000379800113798000e309000c9
:1048e4009e309000e00f5000e08f580006003d001d
:1048f4000e3190009e319000f20fb0000380b000a2
:1049040002379800133798000e3190009e319000c2
:10491400481add004810de0000007200c898de006e
:104924008040780000c0eb0000c0600044e8b7009d
:104934004e209000de2090002037980031379800f8
:104944002e309000be309000e00f5000e08f5800f1
:1049540008003d00f0ff2f00010020002e319000e0
:10496400be31900002014000838148002237980044
:10497400333798002e319000be3190004098de000d
:10498400cf80de008040780000c0eb0000c06000f3
:1049940045e8b7004e209000de2090004037980094
:1049a400513798004e309000de309000e00f5000f8
:1049b400e08f580008003d00f0ff2f00f10f2000a9
:1049c4004e319000de3190000201400083814800a6
:1049d40042379800533798004e319000de319000f2
:1049e4004898de00cf80de008040780000c0eb00f5
:1049f40000c0600046e8b7006e2090000000e000b0
:104a04003d0032006000b8001007980021079800ac
:104a1400140037001e009000ae0090000001be009c
:104a24007204b0000380b0001e0090008000780083
:104a34006e20900000804000104078008040780094
:104a44000080200000004100014878001e00900012
:104a5400ae00900061004000e0804800100798001c
:104a6400210798001e009000800078006e209000be
:104a740000804000104078000004e000160032007e
:104a84001e019000ae019000a00020000100200053
:104a9400800f5100818f5900deff36000e00370071
:104aa4001e009000ae0090007004b0000180b000c1
:104ab400028020008200400000c2b30080487800d9
:104ac4001e009000ae00900061004000e0804800ad
:104ad40010079800210798001e019000ae01900075
:104ae400a000200001002000800f5100818f590098
:104af400ebff3600190037006000b800100798007b
:104b0400210798000e0037001e009000ae009000b0
:104b14007004b0000180b0000280200082004000d8
:104b24000040eb00804878001e009000ae0090002a
:104b340061004000e08048001007980021079800b9
:104b44001e019000ae019000a00020000100200092
:104b5400800f5100818f5900ebff360060c4b30011
:104b640052e8b70010c4b30053e8b70040c5b3001f
:104b740054e8b70030c3b30055e8b70020c3b3000e
:104b840056e8b70000c2b30057e8b70000c2b3004c
:104b940058e8b70000c2b30059e8b70050c5b300e5
:104ba400fee9b700a0cab300ffe9b7008e08900081
:104bb400614090000081fb00714090000080fb0088
:104bc4004800dd00020070000005780001489000f4
:104bd4000081fb00114890000080fb004800dd00cc
:104be40002007000800578000e08900000609000bc
:104bf4000084fb00090020008e08900041589000ba
:104c04000081fb00515890000080fb004800dd004b
:104c14000200700000037800615890000081fb00de
:104c2400715890000080fb004800dd000200700015
:104c3400800378008800780006007800000ab80035
:104c440007c0b900050178000001410009b0b900ae
:104c540000014100820278000a0142008b814a006f
:104c64008e089000f00f200000026100214890009f
:104c74006040600004407000a04898004812de00c4
:104c8400314890006040600004407000b0489800d3
:104c9400f00f2000008261004148900060406000f5
:104ca40004407000c04898004819de005148900044
:104cb4006040600002407000d04898008e08900068
:104cc400214090000081fb00314090000080fb00f7
:104cd4004800dd00020070000002780041409000ae
:104ce4000081fb00514090000080fb004800dd0083
:104cf40002007000800278008041eb0002802000f6
:104d04000400be00742707000004e00013003a000a
:104d140090c0b300b4ecb7008081eb00132f98006f
:104d24001a0337000e0890008af507000004e0001b
:104d34000a003200b0c1b300b4ecb7000082eb004b
:104d4400142f980011033700f0c1b300b4ecb7007e
:104d54000080eb00102f98000c0337000080200027
:104d6400022020008000eb0023ee07000e089000d4
:104d740020609000e34f500075013a0080cfb300eb
:104d840000e8b70000c0eb0001e8b70000c0eb008a
:104d940002e8b70000c0eb0003e8b7000040eb00f6
:104da40004e8b7000040eb0005e8b7000040eb0062
:104db40006e8b700c0c0b30007e8b70000c0eb00c6
:104dc40008e8b70000c0eb0009e8b70000c0eb003a
:104dd4000ae8b70000c0eb000be8b7000e0890002b
:104de400006090000080fb000000e900700798005c
:104df400360037008e089000614090000081fb006f
:104e0400714090000080fb004800dd00020070004b
:104e140000057800014890000081fb0011489000d3
:104e24000080fb004800dd0002007000800578006f
:104e34007e0090006104b8008e08900041589000f4
:104e44000081fb00515890000080fb004800dd0009
:104e54000200700000037800615890000081fb009c
:104e6400715890000080fb004800dd0002007000d3
:104e7400800378008800780006007800000ab800f3
:104e840007c0b900050178000001410009b0b9006c
:104e940000014100820278000a0042008b804a002f
:104ea4008041eb00028020000b2707000004e00093
:104eb40003003a008080eb00112f9800b302370002
:104ec4007e0090000000e900700798007e009000ca
:104ed400e10f4000c7ff3a00028020006000b800e4
:104ee4000089be00640141006000b8000089be0072
:104ef400640141006000b8000089be008e08900083
:104f0400614090000082fb00714090000080fb0033
:104f14004800dd00040070000001780001489000a2
:104f24000082fb00114890000080fb004800dd0077
:104f3400040070008001780061004100e0804900b5
:104f44001007980021079800380037000e089000d9
:104f5400006090000080fb000000e90070079800ea
:104f6400290037007e0090006104b8008e0890008c
:104f7400415890000081fb00515890000080fb00d4
:104f84004800dd00020070000002780061589000c3
:104f94000081fb00715890000080fb004800dd0098
:104fa4000200700080027800880078000400780015
:104fb400000bb80005c0b9000701780000014100ea
:104fc40009a0b90000014100820378001e0090008e
:104fd400ae00900006004000878048008041eb004e
:104fe40002802000bc2607000004e00003003a0011
:104ff4000081eb00122f9800640237007e009000bd
:105004000000e900700798007e009000e10f400066
:10501400d4ff3a001e009000ae00900061004000f2
:10502400e080480010079800210798008e0890003f
:10503400614090000081fb00714090000080fb0003
:105044004800dd0002007000000278000148900072
:105054000081fb00114890000080fb004800dd0047
:1050640002007000800278008e0890004158900081
:105074000083fb00515890000080fb004800dd00d5
:105084000600700000017800615890000083fb0066
:10509400715890000080fb004800dd00060070009d
:1050a4008001780004014100858149001e009000c0
:1050b400ae009000800f5100818f5900a3ff3e0085
:1050c400100020000100200010079800210798001c
:1050d400210037008e089000214890000082fb00d8
:1050e400314890000080fb004800dd00040070009f
:1050f40000017800414890000082fb005148900074
:105104000080fb004800dd0004007000800178008e
:105114001e009000ae009000020040008380480012
:105124008041eb00028020006b2607000004e000b1
:1051340003003a008081eb00132f9800130237001c
:105144001e009000ae00900061004000e080480026
:1051540010079800210798000e0890001060900036
:105164000081fb00030020001e009000ae009000b0
:10517400800f5100818f5900d6ff3e006e209000b1
:105184000000e000570032006000b80010079800eb
:1051940021079800110037001e019000ae01900015
:1051a4001e009000800078006e2090000080400077
:1051b400104078008040780000802000000041000a
:1051c400014878001e009000ae009000610040008d
:1051d400e080480010079800210798001e00900006
:1051e400800078006e20900000804000104078001d
:1051f4000004e000140032001e019000ae01900093
:10520400a000200001002000800f5100818f590070
:10521400e1ff36000c0037001e009000ae00900045
:10522400028020008200400000c2b3008048780061
:105234001e009000ae00900061004000e080480035
:1052440010079800210798001e019000ae019000fd
:10525400a000200001002000800f5100818f590020
:10526400edff360080c0b3000be8b70010c1b300f7
:1052740011e8b70010c1b30013e8b70010c1b300c0
:1052840017e8b7008e089000214890000081fb00c9
:10529400314890000080fb004800dd0002007000ef
:1052a40000027800414890000081fb0051489000c2
:1052b4000080fb004800dd000200700080027800de
:1052c4008041eb00028020000400be00022607009b
:1052d4000004e0001b003a000082eb00142f980049
:1052e400aa0137008e089000214890000081fb003d
:1052f400314890000080fb004800dd00020070008f
:1053040000027800414890000081fb005148900061
:105314000080fb004800dd0002007000800278007d
:105324008041eb00028020000400be00ea25070053
:105334000004e00003003a000080eb00102f980006
:10534400920137008000eb00112f98008f01370085
:1053540080cfb30000e8b70000c0eb0001e8b7005d
:1053640000c0eb0002e8b7000e0890002060900037
:10537400e24f500002003a0000c0eb0003e8b7001f
:105384000e089000006090000080fb000000e9001f
:1053940070079800360037008e0890006140900036
:1053a4000081fb00714090000080fb004800dd009c
:1053b4000200700000057800014890000081fb00a5
:1053c400114890000080fb004800dd0002007000de
:1053d400800578007e0090006104b8008e0890007b
:1053e400415890000081fb00515890000080fb0060
:1053f4004800dd000200700000037800615890004e
:105404000081fb00715890000080fb004800dd0023
:10541400020070008003780088007800060078009d
:10542400000ab80007c0b900050178000001410076
:1054340009b0b90000014100820278000a0042006c
:105444008b804a008041eb0002802000a2250700e7
:105454000004e00003003a000081eb00122f9800e2
:105464004a0137007e0090000000e90070079800b0
:105474007e009000e10f4000c7ff3a006000b800d2
:1054840000408800114088008e0890006140900020
:105494000082fb00714090000080fb004800dd00aa
:1054a4000400700000017800014890000082fb00b5
:1054b400114890000080fb004800dd0004007000eb
:1054c4008001780061004100e080490010079800e5
:1054d40021079800380037000e0890000060900003
:1054e4000080fb000000e9007007980029003700e5
:1054f4007e0090006104b8008e089000415890002e
:105504000081fb00515890000080fb004800dd0042
:105514000200700000027800615890000081fb00d6
:10552400715890000080fb004800dd00020070000c
:10553400800278008800780004007800000bb8002e
:1055440005c0b900070178000001410009a0b900b5
:1055540000014100820378001e009000ae0090001c
:1055640006004000878048008041eb000280200054
:10557400592507000004e00003003a008081eb0095
:10558400132f9800010137007e0090000000e9000d
:10559400700798007e009000e10f4000d4ff3a00ad
:1055a4001e009000ae00900061004000e0804800c2
:1055b40010079800210798008e0890006140900021
:1055c4000081fb00714090000080fb004800dd007a
:1055d4000200700000027800014890000081fb0086
:1055e400114890000080fb004800dd0002007000bc
:1055f400800278008e089000415890000083fb00e0
:10560400515890000080fb004800dd000600700047
:1056140000017800615890000083fb0071589000ed
:105624000080fb004800dd00060070008001780067
:1056340004014100858149001e009000ae009000e5
:10564400800f5100818f5900a3ff3e008e08900007
:10565400215090000081fb00315090000080fb003d
:105664004800dd00020070004500dd006103b80061
:105674008e089000015890000082fb0011589000a1
:105684000080fb004800dd00040070000001780089
:10569400215890000082fb00315890000080fb00ec
:1056a4004800dd000400700080017800060041001d
:1056b4008780490061035000e08358008e08900001
:1056c400015890000082fb00115890000080fb00fc
:1056d4004800dd00040070000001780021589000ab
:1056e4000082fb00315890000080fb004800dd0080
:1056f40004007000800178000600be0030ed070051
:10570400200f9800310f98001000200001002000a5
:105714001007980021079800210037008e08900098
:10572400214890000082fb00314890000080fb007b
:105734004800dd000400700000017800414890003a
:105744000082fb00514890000080fb004800dd000f
:1057540004007000800178001e009000ae009000ec
:1057640002004000838048008041eb00028020005a
:10577400d92407000004e00003003a000082eb0093
:10578400142f9800810037001e009000ae00900096
:1057940061004000e080480010079800210798004d
:1057a4001e019000ae0190002e089000be089000eb
:1057b400800f5100818f5900d8ff39006e2090006e
:1057c4000000e000570032006000b80010079800a5
:1057d40021079800110037001e019000ae019000cf
:1057e4001e009000800078006e2090000080400031
:1057f40010407800804078000080200000004100c4
:10580400014878001e009000ae0090006100400046
:10581400e080480010079800210798001e009000bf
:10582400800078006e2090000080400010407800d6
:105834000004e000140032001e019000ae0190004c
:10584400a000200001002000800f5100818f59002a
:10585400e1ff36000c0037001e009000ae009000ff
:10586400028020008200400000c2b300804878001b
:105874001e009000ae00900061004000e0804800ef
:1058840010079800210798001e019000ae019000b7
:10589400a000200001002000800f5100818f5900da
:1058a400edff360080c0b3000be8b70010c1b300b1
:1058b40011e8b70010c1b30013e8b70010c1b3007a
:1058c40017e8b7008e089000214890000081fb0083
:1058d400314890000080fb004800dd0002007000a9
:1058e40000027800414890000081fb00514890007c
:1058f4000080fb004800dd00020070008002780098
:105904008041eb00028020000400be0072240700e6
:105914000004e0001b003a000080eb00102f980008
:105924001a0037008e089000214890000081fb0087
:10593400314890000080fb004800dd000200700048
:1059440000027800414890000081fb00514890001b
:105954000080fb004800dd00020070008002780037
:105964008041eb00028020000400be005a2407009e
:105974000004e00003003a008080eb00112f98003f
:10598400020037000001eb00122f98001e2890003f
:105994004f05be004f04be000080fa000000060060
:1059a4001200fa0060079800710798006e009000da
:1059b40090007800510798006e0090001019900034
:1059c400a0199000028fbe007e00900010007800a5
:1059d4006103b800de009000015890000082fb00d3
:1059e400115890000080fb004800dd0004007000a6
:1059f40000017800215890000082fb00315890008b
:105a04000080fb004800dd00040070008001780085
:105a14004b18dd004511de0002017000c519de00df
:105a24000600be0066ec0700004f98005e00900080
:105a3400206090000080fb00000f98008e0890000a
:105a4400e18f50001f0035000e099000e20f510055
:105a54000e0034008e099000e38f510001003200e3
:105a6400180037005e009000906090000e4890008f
:105a74000080fb000181fb00110009000280d800b6
:105a84008000fd00004f98000e0037008065800004
:105a940091658000be0f1000ae8f1800090032001f
:105aa4005e009000906090000e4890000080fb0023
:105ab4000181fb00110009000280d8008000fd0074
:105ac400004f98001e01be005e009000970a070078
:105ad40020079800310798005e0090009080fb003a
:105ae400104090000080fb004800dd0001007000c1
:105af400000278000e4890000081fb0003002000a3
:105b04002e009000be0090000200400083804800f8
:105b14008041eb0004017800ef2307000004e0005b
:105b240003003a000040eb00104f980002003700d9
:105b340010c0b300104f98001e4890000080fb0076
:105b44000080fa00000006001800fa0070079800b0
:105b5400010f9800120f98000000eb00000f78006e
:105b64001e089000206090000080fb00300f980019
:105b74003e089000e10f50000d003200be08900076
:105b8400e38f50000100320012003700f0ff2f00b5
:105b9400f1ff2000100798002107980080ff2f00d4
:105ba400f1ff2000300798004107980011003700ea
:105bb400f0ff2f0001002000100798002107980033
:105bc40080ff200001002000300798004107980062
:105bd40008003700f0ff2f00010020001007980094
:105be4002107980080ff2f00010020003007980053
:105bf400410798007e0090008e089000e00f50004e
:105c0400e08f5800070032007e0190008e0990005a
:105c14001000200001002000800f5100818f5900e6
:105c24003d003a0020002000000f78003c003700bf
:105c34007e0190008e0990001e089000e710070076
:105c440050079800610798005e019000ee019000f3
:105c54001e009000ae009000800f5100818f59000b
:105c640003003a0010002000000f78002a003700db
:105c74005e009000ee009000e00f5000e08f5800ae
:105c8400070032005e019000ee0190001000200039
:105c940001002000800f5100818f590003003a0059
:105ca40020002000000f78001b0037005e019000e8
:105cb400ee0190003e009000ce009000800f510055
:105cc400818f59000200390020002000000f780065
:105cd4008040eb006022b8007e0190008e099000a5
:105ce4001e089000df1207000001be001e00900095
:105cf400ae009000800f5100818f590002003a00dd
:105d040010002000000f78005e009000ee0090006c
:105d140070079800010f98001e00e000c4ff3200d5
:105d240011c0b3006022b8006011b8001e089000d2
:105d3400cc120700210020009e8f100003003a00bf
:105d440010002000200f9800020037008000eb00b4
:105d5400210f98002e0890000080fa000000060031
:105d64001e00fa00300f9800410f9800225f98003f
:105d74003e08900090007800110f98003e089000b3
:105d840070119000801990005207980063079800e2
:105d94003e08900010199000a01990001207980076
:105da400230798004e089000100078006103b800a3
:105db4009e089000015890000082fb00115890004a
:105dc4000080fb004800dd00040070000001780042
:105dd400215890000082fb00315890000080fb00a5
:105de4004800dd0004007000800178004b18dd00dd
:105df4004511de0002017000c519de000600be0078
:105e04006feb0700104798001e0890002060900078
:105e14000080fb00e30f5000010032000e00370049
:105e24001e089000906090001e4090000080fb00cf
:105e34000181fb00110009000280d8008000fd00f0
:105e44001047980080ff2f00f1ff200030079800d2
:105e540041079800120037005e009000ee009000a9
:105e6400e00f5000e08f5800090032001e08900037
