:020000040000fa
:080000000002040000000000f2
:020000040000fa
:100400002fef200000ff27000001880000000000ff
:100410000c00070080542a00010020000f00070094
:10042000000020000000e000020032000000020096
:10043000000000006c830200000000000040da00b1
:100440000000fe00401020000000e000020032002a
:10045000002020009001880000000600a102880012
:10046000800078000000eb001a003700e2804000b6
:1004700054a0b4009101ba00e280400054a0b4003e
:100480009102ba00e280400054a0b4000002eb00e8
:10049000472bde00f507b200a6018800602ce100c2
:1004a00008003a000049eb000201e80002003900b0
:1004b0003420ec0002f0a0008301e900f9ff3e00c7
:1004c000040037006128e100010032000082eb00e7
:1004d000040007001101ba000200e000e3ff3a0047
:1004e0000000060004d0a300e20f49001c00390000
:1004f000810278003549ba000201e80002003900a3
:100500003420ec0002f0a0008301e9000f0032006b
:100510002549ba000201e800020039003420ec004d
:1005200002f0a0008301e900080032000400e000ae
:100530000600320015c9ba000201e80002003900c5
:100540003420ec0002f0a0008301e9008180e80083
:1005500054a0b4000300e000e2ff3a0000000600ef
:100560009102ba00055978008301e900f7ff3200d3
:10057000c82ade00055978008301e900f3ff320044
:100580000400e000f1ff320011d9ba00eeff37009d
:10059000669c040000000000a49c04000000000011
:1005a000429d040000000000d49c040000000000f4
:1005b0006c9d040000000000fe9d0400000000008f
:1005c0003c9e040000000000b29d040000000000fa
:1005d000d89d040000000000829e0400000000007e
:1005e0001803040000000000000478000600370033
:1005f0008200410070778000e10078000200e8008e
:1006000060778800010001006277800080778000b9
:10061000800f5100f6ff3900c0e620007077880097
:10062000200220008077880008007800ba040700c4
:10063000881f78000204780052000700080040007c
:100640004f047800000006000000fa00881f7800c0
:10065000000478003fb99700ea81570080007800d5
:10066000803120004e000700800078000000e0008c
:10067000020035000040eb0000f478000100780033
:100680004f0478000080fa00000006008000780027
:100690001104b100030035009101b10001003c00dc
:1006a0000050a000000006008001eb0002003700af
:1006b000817178008301e800828f5100fcff3a00cd
:1006c00000000600800178008002eb000100370086
:1006d0008459780005035100828f520009003200ce
:1006e00065c278008502e8000404e000f8ff3a00e3
:1006f00083007800068141008058eb00828f500013
:10070000fdff3a0000000600800078001106b100ed
:10071000030035009101b10001003c000050a10030
:100720000000060080007800010037000000e800ab
:100730001004e000fdff3a00010050000000060038
:10074000800178000001780031407800005978007d
:100750000004e000fcff3a000300780000000600ff
:10076000040037000204e00001003a000000050028
:100770000000e80010417800814f5100f9ff3a0075
:10078000000006008001eb000200370061f07900f4
:100790008301e800828f5100fcff3a000000060050
:1007a0006200fa00889fbe008a9fbe000004be005f
:1007b000020578008300780060f92f000f004000e8
:1007c000b000070088979f0099979f000000eb00fa
:1007d000a09f9f009a4578000b80fb000000ea0074
:1007e000cf04de0050c2b30080cf550002003200bb
:1007f00009047800010037000904e9000800e0005e
:100800000b0034001f909700080178008a007800e0
:100810008f9197000300010090979f000000e00077
:10082000930032002f98970000004400a09f9f0083
:100830000905450050c2b30080cf550004003200c6
:100840000b04e000e3ff3a002f989700890037007f
:100850000000eb00809f9f00f0979f00e0979f00b3
:10086000d0979f00c0979f00b0979f00c09f9f00a8
:1008700009003700e0ed200000805000000040003b
:1008800021ed2000e10078004f98970001007000f2
:10089000c09f9f000a05e8001a4478008800fb000a
:1008a000e0ed2000aeff0700800078000000e000cf
:1008b000f0ff3a00a0c2b300804f54000e003a008f
:1008c000bf8897000180e900b08f9f00100078007a
:1008d000b09f9f000000e00005003d000000ea001e
:1008e000b09f9f004f9897000020a000c09f9f00de
:1008f0000a05e80010003700b19f9f0003fd2f009c
:10090000f4ff2700080037003f989700840f50003d
:10091000040032006a00b9000000410003004000fa
:10092000b09f9f000a05e8001a01fb000300410088
:10093000e90f5000f4ff3600e0c2b3009a4f1000f8
:10094000040032000080eb00909f9f008a04780032
:100950001c0037008a04e800a0c2b300994f1000c1
:1009600007003a00bf8897000180e900b08f9f0020
:1009700010007800909f9f008a84e80011003700e3
:100980000000eb00909f9f0003fd2f00f4ff270065
:10099000080037001f989700840f500004003200b1
:1009a0006a00b9000000410003004000909f9f00d2
:1009b0008904e8001901fb0003004100e90f500021
:1009c000f4ff3600194478008800fb0040ee200058
:1009d00063ff07000000e00002003a0000447800d6
:1009e000010037008904e800a87f9f0080c6b3009b
:1009f000804f540004003a00994f14000a003a0056
:100a00006640500006003700c0c6b300804f540057
:100a100005003a00994f140003003a006540400079
:100a2000a07f9f008904e8000905e800cbfb2f00a8
:100a30008f8545001901fb0060f92f000f00400071
:100a40000084e8008b0178008000780008007800be
:100a5000110007000000e00005003a008b0078005c
:100a6000080078004f0107000000e00059ff3d003a
:100a70000080eb004f05be004f04be000080fa006e
:100a8000000006000200fa00f1bf9f000108780094
:100a90000080fa0000000600889fbe008a1f7800d0
:100aa0000004780001027800824478000305780091
:100ab000e0c6b300804f5100d200320015003c0068
:100ac0006b405000804f5100240032000a003c006f
:100ad00070405000804f51000f01320065404000cf
:100ae000804f51007400320050c2b300804f51005b
:100af00020013a001c01370040c6b300804f51006e
:100b00001b00320065404000804f510019013a003f
:100b10001700370030c7b300804f5100fe0032008d
:100b200007003c0064405000804f510062003200da
:100b30000040e800804f51000e013a00e700370006
:100b400050c7b300804f51005b003200634040004b
:100b5000804f510007013a00570037009180e900ab
:100b6000010a780078009000917178000701370041
:100b7000a8609000c0c6b30080cf50000a003a00c1
:100b80009400780064805000000a78001000be00d5
:100b90004f89de00cf91de000002be000203780024
:100ba000820378001300370010c7b30080cf5000d5
:100bb00003003200a0c6b30080cf500006003a0008
:100bc0009400780068805000000a78003002be006f
:100bd0002003be00070037001480e900000a7800f7
:100be0001000780000027800cfa2de000503780034
:100bf00086037800049cbe000694be00a8609000a6
:100c000080c6b30080cf50000e00320020c6b30073
:100c100080cf500005003a000400fb00cf80de00ca
:100c200001017800820178000a00370040c7b30054
:100c300080cf5000030032006640400080cf50005b
:100c400006003a0004007800cf80de000101780041
:100c500082017800009cbe000294be003800be00f5
:100c60002801be00e00f5000e08f5800e00f59004f
:100c7000e08f590003003d0078009000d1c2b3001e
:100c80000a003700081090000018a300030032008b
:100c900078009000b1c2b300040037000008a30040
:100ca000530032007800900001c2b3000175780053
:100cb0000000e8004d003700a8609000c0c6b300f7
:100cc00080cf500006003a00940078006480500005
:100cd000000a78001002be006033b800130037002d
:100ce00010c7b30080cf500003003200a0c6b3008d
:100cf00080cf500006003a009400780068805000d1
:100d0000000a78003002be002003be000700370052
:100d10001480e900000a78001000780000027800d2
:100d2000050020000600200007002000049cbe00f3
:100d30000694be00a860900080c6b30080cf50002b
:100d40000e00320020c6b30080cf500005003a00ec
:100d50000480fb00010020000200200003002000ae
:100d60000a00370040c7b30080cf500003003200b4
:100d70006640400080cf500006003a000400780032
:100d8000010020000200200003002000009cbe00a3
:100d90000294be00081090000038a3001400320036
:100da0003800be002801be00e00f5000e08f580060
:100db000e00f5900e08f59000d00320080c7b300ea
:100dc00080cf54000300320080c5b30080cf5400b0
:100dd00007003a007800900001c3b3000175780065
:100de0008000e80009f578000080e80070049800b1
:100df0007800900000004500600498008940780069
:100e000042003700a8609000c0c6b30080cf5000f9
:100e1000250032000a003c006440500080cf5000a2
:100e20002800320000c0e80080cf500014003200db
:100e30006840500080cf500022003a000a0037007e
:100e400040c7b30080cf50001e0032006640400013
:100e500080cf50001b0032006940500080cf50000e
:100e600018003a00060037001480e900000a7800f4
:100e700010007800485c9000084878004500370072
:100e80001480e900000a78001002780068089000d9
:100e9000cf80de000101780082017800009abe0058
:100ea0000292be003b0037001480e900000a78007f
:100eb0001001780068089000cf80de000089be0035
:100ec000340037001480e900000a78001000780030
:100ed000680c9000080878002e0037001180e900a7
:100ee0008008780010007800cf80de0001017800d3
:100ef00082017800009cbe000294be007800900041
:100f0000000045006004980081c7b3000800780025
:100f1000ee0007001f0037001480e900000a780087
:100f20001000780060049800580990000200e0006a
:100f300002003d00fbfd0700090037008000eb00c8
:100f40006b020700800078000000e0000300320020
:100f500068009000008050000100370058089000a1
:100f6000100c98000b003700780090000275780094
:100f70000600370078009000800045000904e0007a
:100f800001003a0059c2b300894878000000e80027
:100f9000700498000000eb004f0578004f04be007d
:100fa000000006000400fa00889fbe008a9fbe0071
:100fb0008c1f78000004780001067800700890000b
:100fc000f8009000010050008808900001005000d7
:100fd0009808900001005000a808900001005000ff
:100fe000b808900001005000c8089000810550002a
:100ff0000002220090bf9f0000032300a0bf9f00bb
:10100000081090000028a30018003a000b00e00030
:10101000160034008b04780009057800e28f540034
:10102000020036002a002000020037000900e0001c
:101030000b00340058009000c80190000a017800ad
:10104000ee80570003000100500498000000e0000b
:10105000960032006808900000004500600c98007f
:101060008a8454004240a900ebff3c0078019000c4
:101070000200e0000b00340058009000c80190000e
:101080008c00780003000100500498000000e0008c
:101090008600320068089000f800900001004000cf
:1010a000600c9800880c90000900e00015003400e6
:1010b00009057800e28f5400020036002a00200063
:1010c000020037000900e0000b00340058009000d7
:1010d000c80190000a017800ec805700030001006d
:1010e000500498000000e000700032006808900092
:1010f00000004500600c98008a8454004240a9001a
:10110000ebff3c00180990000200e0000b003400e7
:10111000e800900058009000c80190000300010012
:10112000500498000000e000600032006808900061
:101130009808900001004000600c9800a80c9000f6
:101140000900e0001500340009057800e28f540022
:10115000020036002a002000020037000900e000eb
:101160000b00340058009000c80190000a0178007c
:10117000ec80570003000100500498000000e000dc
:101180004a0032006808900000004500600c98009a
:101190008a8454004240a900ebff3c0038099000cb
:1011a0000200e0000d003400e800900018089000f4
:1011b0008080400058009000c801900003000100aa
:1011c000500498000000e0003800320068089000e9
:1011d000b808900001004000600c9800c80c900016
:1011e0000900e0001500340009057800e28f540082
:1011f000020036002a002000020037000900e0004b
:101200000b00340058009000c80190000a017800db
:10121000ec80570003000100500498000000e0003b
:10122000220032006808900000004500600c980021
:101230008a8454004240a900ebff3c000810900053
:101240000028a3001b0032000b00e000190034004e
:101250008b04780009057800e28f54000200360004
:101260002a002000020037000900e0000b003400d3
:1012700058009000c80190000a017800ee805700e5
:1012800003000100500498000000e0000700320055
:101290006808900000004500600c98008a845400a3
:1012a0004240a90003003400eaff37000080eb0051
:1012b000010037000000eb004f0678004f05be002c
:1012c0004f04be000080fa00000006002f03b000ab
:1012d000889fbe008a9fbe008c9fbe008e1f780034
:1012e0000007780010ec2000c0b79f0080c5b30055
:1012f00080cf50000800320002eb2000c2b79f00f0
:101300007740400080cf500003003a008300200067
:10131000b3b79f000a00370080c7b30080cf5000ea
:1013200005003200a4002000b4b79f0080c5b300c0
:1013300080cf500002003a0005012000b5b79f00a1
:101340003e04be002e05be0040c6b30080cf500054
:10135000030032006540400080cf50000b003a008f
:10136000e00f5400e08f5c00e00f5d00e08f5d0057
:1013700006003d006000b8006011b800080450008d
:10138000898458000a0559008b855900bfb397001e
:10139000e88f530003003200f08f530045003a00fd
:1013a0000200370036002000010037004600200010
:1013b000e00f5400e08f5c00e00f5d00e08f5d0007
:1013c00005003a005e08900081012000a1b79f004f
:1013d0000000e000080032003fb197000200e90081
:1013e00008006000cfb197006340780090df9f0055
:1013f00074012000a4b79f00860278008502e900ee
:10140000050033008b05d1000a85d3008984d30001
:101410000884d300f9ff3700089fbe000a97be007a
:10142000afb397000700e90021fc2f008f80400038
:10143000008240003fb197008202e90012003700ad
:10144000afb397008703e900a7b79f000080620051
:10145000cfb09700615278003e00be002e01be0062
:10146000860378008703e900050033008381d100fb
:101470000281d3008180d3000080d300f9ff3700c0
:10148000009fbe000297be003e00be002e01be00bf
:10149000e00f5000e08f5800e00f5900e08f590036
:1014a000d6003400afb397000700e000e4ff3c0033
:1014b000d2003700ae60900080c6b30080cf5000ed
:1014c0000b00320006003c000104e000080032007e
:1014d0006640500080cf500073003a00040037008f
:1014e000c0c6b30080cf50006f003a003100370013
:1014f000080178000800e00005003a005e0890004e
:1015000081012000a1b79f000000e0000900320027
:10151000bfb19700110009000381d8008000fd00d1
:101520004fb297006440780090df9f007501200063
:10153000a5b79f00bfb39700110009000781d8002d
:1015400080017800afb097000100e90022fc2f0075
:101550000f014100000241000c003700bfb29700ac
:10156000110009008501d80000017800afb3970091
:101570008703e900a7b79f000590b90000805100dc
:10158000cfb0970061527800820178000300e0003c
:10159000030034002fb197000200e000efff3c0091
:1015a00003007800cf80de0001017800820178001e
:1015b0003a0037000806be00e00f5400e08f5c00e0
:1015c00005003a005e08900083012000a3b79f0049
:1015d0000000e000090032003fb297006121b9002d
:1015e0000c00be0025020700cfb2970065407800ce
:1015f00090df9f0077012000a7b79f003fb29700c0
:101600006121b9000c00be000c0207000006be00fc
:10161000afb297000500e90027fc2f008f8343003d
:101620008083430097b79f00110037003fb19700b8
:101630006114b9000801be000c00be00650207007d
:101640000005be00afb197008301e900a3b79f007a
:101650000801be00b8000700000056001fb2970046
:10166000cfb297006552780094b79f000a06be007b
:10167000e00f5600e08f5e0003003400afb3970028
:101680000700e000e9ff3c004feade00cfa2de00e9
:101690000c00be000401780084017800009fbe00a9
:1016a0000297be0055003700e00f5400e08f5c0049
:1016b000e00f5d00e08f5d0005003a005e089000dd
:1016c00081012000a1b79f000000e0000d00320062
:1016d0003fb1970002027800cfa2de000503780038
:1016e000860378000800be000a01be00c902070098
:1016f0004fb297006440780090df9f007501200092
:10170000a5b79f003fb1970002027800cfa2de008c
:1017100005037800860378000800be000a01be00b9
:10172000b5020700009fbe000297be00afb1970050
:101730000300e90024fc2f000f02420000064200d3
:1017400020003700bfb2970005047800cfc4de0048
:10175000090578008a0578000802be000a03be0069
:101760005fa89700efa897007fa997008fb1970017
:10177000ac020700d0b79f00e1b79f00f2b79f000f
:1017800083bf9f00afb397008703e900a7b79f000f
:101790000802be000a03be00280307005faa9700e4
:1017a00000005200cfb29700655678005fb09700f6
:1017b000efb097007fb197008fb99700009fbe00f0
:1017c0000297be003e00be002e01be00d0af9f00bb
:1017d000e1af9f00f2af9f0083b79f00e00f500082
:1017e000e08f5800e00f5900e08f590003003400eb
:1017f000afb097000100e000d2ff3c003fb197007e
:10180000e80f510013003a000e1090000038a300ba
:1018100010003200afb19700f78f510006003e0074
:1018200024fc2f000f0242008300420000c3b300db
:10183000914f100007003200afb297008502e90017
:10184000a5b79f0000c3b30027fc2f008f83430080
:1018500080f37a00afb1970078811100120f9800e1
:101860006e00900024fc2f000f0242008300420013
:10187000c4fb07001e0990005e089000800f510015
:1018800006003d0002005000000f98000e1090006e
:101890000040a100001798000f0037000000e00092
:1018a0000d003d000e10900074006000f00f50001d
:1018b00009003a007e089000fe00900001005000f0
:1018c0008e08900001005000020050004240a90024
:1018d00001003400000f98004f0778004f06be004b
:1018e0004f05be004f04be002f03b10000000600ec
:1018f0008001eb00040037008301e80090cf100066
:10190000040032000000e800828f5100faff3a0024
:101910000000eb00000006002002e20004003d0091
:101920002342ab00020032002302ab00feff320074
:101930000040da00feff3700020ab900001bb900c0
:101940000200b80081004200810043000000060050
:10195000889fbe008a9fbe00010578000100e0005c
:101960000400350008003c000000e00020003200c8
:101970000500370060001000e080180002003b0006
:1019800001f02c001a0037000004be006011b800fe
:101990006b0920000982cf00020039000882cf00c5
:1019a0000441b000694252000e00320008003b00c2
:1019b00082817100610164008904d1000884d30030
:1019c0008b05e8000442e800f9ff3a000500370003
:1019d0000804440089844c008b05e9000442e900b6
:1019e000fbff3a00280107000af0a70001f0a00061
:1019f0004f05be004f04be0000000600889fbe00d9
:101a00008a9fbe008c1f7800450107004c013300ff
:101a100003866c006450e1002e0032006420e10077
:101a2000330032006150e1002f0032006120e100fc
:101a30003100320085855500eb07b0000900200019
:101a400008042000050037000804440089844c0085
:101a50000a0031000603430087834b000001530056
:101a600081815b00f8ff33000203be000800a00084
:101a70000804440089844c00f6ff3900c639dd00b3
:101a80008301730001003200130020008904d1009b
:101a90000884d3000998a300050032000800a700bd
:101aa0000300a0008904d1000884d3008b05e8005e
:101ab0008904d1000884d3000001eb000281d20028
:101ac000f100070001f0a1000cf0a70001f0a00058
:101ad000240137006420e100260132000801be0025
:101ae0000200be00f7ff37006120e1002101320053
:101af0006000b800f3ff37000000200001f8270065
:101b0000f0ff370003f0a200889fbe008a9fbe004e
:101b10008c1f780002010700090133006450e100c6
:101b20004f0032006420e1005200320003826c005a
:101b300007003b000905d0000306d000820f5400c7
:101b40000c065d00020039000200320089017800b5
:101b5000030678008582550004003d000003fd0067
:101b60008103fd008502ea008b854200840f72002c
:101b700002003b0060001000e08018006011b80017
:101b80000005eb007a28e1000a0039000600780021
:101b9000c75ddd00f707b200878075002d003700b4
:101ba000828171000a017800610560008180d100a6
:101bb0000080d3008502e900f9ff3b0006044000e5
:101bc0008784480002003b0060041400e0841c008d
:101bd0000988a300070032008a81710082817100a8
:101be000610164008904d1000884d3008b05e800fa
:101bf000170037000978a30013003a000b00e0003b
:101c0000130034008b05e9000804440089844c006b
:101c10000a4474000978a3000d003a000b00e000ac
:101c2000070034008b05e9000804440089844c0057
:101c300001003a000b0020000978a300f7ff3200f2
:101c40000001eb0002003700828171000a01780078
:101c50008d0007000cf0a70001f0a000c1003700c4
:101c60006420e10002003a00838f6c00c100330061
:101c70000801be000200be00ba0037000001be002d
:101c8000bf0007000470a70003f0a10003f8a30041
:101c900013003a006509b100100032000900350058
:101ca0006928e1000200350001002800000005005d
:101cb00000004000818048008502e900fcff3a00f6
:101cc00000000600f88f4200050035008100d100b9
:101cd0000080d3008502e800fcff3a000000060007
:101ce0008000eb00000005000001be00a40007001a
:101cf0000470a70003f0a1006509b10016003200ce
:101d00000d0035006828e10006003500f0ff2f00c7
:101d1000f1ff27000300e00013003b000100280052
:101d20000000050000004000818048008502e900b5
:101d3000fcff3a0008003700f88f420002003c0028
:101d40008000eb00000005008100d1000080d3007e
:101d50008502e800fcff3a000300e00002003b00bf
:101d600060001000e080180000000600889fbe00a0
:101d70008a9fbe008c1f7800690007007000330046
:101d800003866c006450e100240032006420e1000e
:101d9000270032006150e100220032006120e100a2
:101da000210032008b854200eb07b1000134b800fe
:101db000003ab8000804420089844a00013ab80099
:101dc0000030b8008880400009014a000400330058
:101dd0000000400081804800020149008b05e900b5
:101de000c909dd00830170000100320013002000ea
:101df000c814de004814dd004709de001200b200fe
:101e0000c808de00088470001f00070001f0a10070
:101e10000cf0a70001f0a000520037006120e100a3
:101e2000540032000801be000200be00f7ff370078
:101e30006150e100fcff3a004e0037006022b8001c
:101e4000060220000000d0008180d2000482d2006f
:101e50008582d2000000a0000202520083825a0054
:101e6000030031000202420083824a000000a10008
:101e70000603e900f3ff3a0000000600efff070049
:101e80000400be00000006008100200061805500b3
:101e90000b003d000b00200061fe2f000100e1005f
:101ea0001d00340082817100610164008904d10049
:101eb0000884d3000000e800faff3a007100200017
:101ec000610064000300700002006000090032003d
:101ed00061044400e0844c000988a500050032003c
:101ee0008b05e8006808e10002003a008904d1008f
:101ef0000884d300f20f20000258e10005003d00e5
:101f0000c75ddd00f907b200898075000800780020
:101f1000000006000bf827008b0078000000050089
:101f20000004be00160007000003be000405be004a
:101f30000200be0012000700844f7500000006007a
:101f40000200be006450e100050036006420e1009c
:101f5000020036000968a30001003a000800be0034
:101f60000160a0004f0678004f05be004f04be0080
:101f700000000600f0ff2f00f1ff2700f9ff3700f7
:101f8000c70ade00f107b200f50fb2000800320008
:101f9000e1cf4200020032000170a00024000500e1
:101fa000810f7000010032000408050044000500a4
:101fb000810f700002003a00140005008502e9005c
:101fc0000000400081c04800fcff3b000170a00001
:101fd00024000500839f68000100e00002003d002e
:101fe00060001000e08018000300e00002003d00e7
:101ff00060011100e081190090ff07004f00e00030
:1020000002003b0060001000e080180000000600a5
:10201000881f7800000478005001be004000be0018
:10202000040040008580480006014900878149007e
:10203000009cbe000294be000400e1000588e1009f
:102040000690e1000798e1000200310068004400ba
:102050001008e8004f04780000000600f4874700ed
:10206000889fbe008a9fbe008c9fbe008e1f780096
:102070000205be000004be00d4b79f00e5b79f0074
:10208000f6b79f0087bf9f000000eb00c0b79f001e
:10209000b0b79f00a0b79f0090b79f0080b79f0088
:1020a0000d042000bfb097004fb097000001400022
:1020b0000000e0000f003d004f08de00000071004e
:1020c000c0b79f009e00070001003d0012002000e5
:1020d000a100070001003d0012002000a60007003b
:1020e000b1000700b60007000f004000c8ff07005e
:1020f000220037004f08de0000067100ccb79f00b9
:102100008f00070001003d00120020009200070030
:1021100001003d001200200097000700a200070008
:102120000fb297009fb297002fb39700bfb39700ed
:10213000a90007000000520081805a0002015b00e4
:1021400083815b0080b79f0091b79f00a2b79f007b
:10215000b3b79f000007eb009f0007000020e100dd
:1021600001a8e10002b0e10003b8e1000100310084
:102170001e0020000e005600c0b79f004fb297000f
:102180000400e000070035001000200001002000de
:102190006011b80008047000898470000a0571009d
:1021a0008b8571008d06e900beff3a000400e00057
:1021b00003003d00820007000f00400094ff07006d
:1021c0004fa897000000e00004003a000fb4970009
:1021d0009fb497002fb59700bfb5970094000700f4
:1021e0004f0778004f06be004f05be004f04be00eb
:1021f0004f01b10000000600881f78001800200081
:10220000881f780095ff07008f87e9004f0478004a
:1022100000000600801feb0090ff07008f87e90099
:1022200000000600889fbe008a9fbe008c1f7800b9
:102230006e00070007003d0073000700e00f5b0021
:10224000e08f5b0007003d00320007000006eb0056
:10225000040037003400070002003d002a00070098
:102260001c00200072000700e3ff07000203be000d
:102270000002be000c00e000010032002200070056
:102280000400be000601be004f0678004f05be00e8
:102290004f04be0000000600889fbe008a9fbe005b
:1022a0008c1f78005100070005003d005600070014
:1022b000e00f5b00e08f5b0006003d00040037008c
:1022c0001900070003003d006000b8006011b8006d
:1022d0001000070056000700ceff07000203be00f3
:1022e0000002be000c00e000010032000600070002
:1022f0000400be000601be004f0678004f05be0078
:102300004f04be00000006006000b8006011b80075
:10231000000037000402500085825800060359006f
:1023200087835900000006000006eb00e00f520012
:10233000e08f5a00e00f5b00e08f5b0000000600ba
:102340000180400090b79f000001eb008fb0970024
:102350000100e000000006000200700090b79f003e
:102360000180400080b79f000001eb00ffa89700ac
:102370000100e000000006000200700080b79f002e
:10238000018040006faa9700cf20de00010070009e
:10239000f0af9f0004024200250007004f18de0046
:1023a0000002720000000600e4af9f000804440031
:1023b00089844c000a054d008b854d000000060005
:1023c0003fb29700cfb297005fb39700efb397008b
:1023d00000fe2f00000006003fb09700cfb097002e
:1023e0005fb19700efb19700000006000205be0044
:1023f0000004be00e00f5000e08f5800e00f5900cd
:10240000e08f5900000006006000b8006011b800bd
:1024100008045000898458000a0559008b8559002a
:102420001c002000e00f5200e08f5a000000060060
:102430000800be000a01be0000000600889fbe0022
:102440008a9fbe008c1f78000205be000004be00fb
:102450000006eb00e00f5000e08f5800e00f59003d
:10246000e08f590007003d006000b8006011b8001f
:1024700008045000898458000a0559008b855900ca
:102480001c002000e00f5200e08f5a00e00f5b00bc
:10249000e08f5b0002003d000f0007000c00a2006f
:1024a0000800be000a01be00120007000203be00c1
:1024b0000002be000c00e000010032000600070030
:1024c0000400be000601be004f0678004f05be00a6
:1024d0004f04be00000006006000b8006011b800a4
:1024e0000402500085825800060359008783590072
:1024f00000000600889fbe008a9fbe008c9fbe0021
:102500000404b8000506b8008904460060854e0042
:102510000606b8000a054600e0854e000706b8002a
:102520008b054600040eb800890446000a854e005b
:10253000e0854d00050eb8000a0546008b854e006b
:10254000060eb8008b0546000416b8000a054600c2
:102550008b854e000516b8008b054600041eb8009a
:102560008b0546000800be000a01be004f06be00f3
:102570004f05be004f04be00000006008600a90003
:102580008620a900e7416000c10a20009140780040
:1025900082cfb30082c0600083c070008000fd0065
:1025a000ace0b7008000fd0001c7b30081416000ce
:1025b000c10a200091407800f2c8b30082c06000d8
:1025c00083c070008000fd00ace0b7008000fd001b
:1025d000680160004311de0061092000914078002d
:1025e0000104a10082c070008000fd0096e0b700e9
:1025f0008000fd000008b2004700de0000404000ff
:1026000061092000914078000114a10080c0700091
:102610000100780096e0b700000006002110880055
:1026200030108800000006008a20a9008a40a90016
:10263000e7416000c419dd00c10b20009140780023
:10264000f2c8b30082c0600083c070008000fd004b
:10265000bce0b7008000fd00800178000307b200f5
:10266000c419de00d10b20009140780082cfb30066
:1026700082c0600083c070008000fd00bde0b70034
:102680008000fd00680160004311de00024141004e
:10269000a1092000914078000114a10082c07000bf
:1026a0008000fd009ae0b7008000fd000008b20045
:1026b0004700de004200dd00a109200091407800c3
:1026c0000124a10080c07000010078009ae0b700ea
:1026d00000000600a1108800b0108800000006006d
:1026e000a1138800b0138800000006000602a800ad
:1026f0000000060006c2bf000008a300fdff3a006c
:1027000006c2bf000018a300faff3a0006c2bf00cd
:102710000028a300f7ff3a0006c2bf000038a3005c
:10272000f4ff3a0006c2bf000048a300f1ff3a00e0
:1027300009c2bf000068a300eeff3a0000000600d7
:102740000080fb001010880008c2bf0001c8b30061
:10275000014060000080fb000000e9004f00de0047
:102760000000e900000006000642a8000000060084
:102770001602a8000000060016c2bf000008a30051
:10278000fdff3a0016c2bf000018a300faff3a008e
:1027900016c2bf000028a300f7ff3a0016c2bf0010
:1027a0000038a300f4ff3a0016c2bf000048a3009f
:1027b000f1ff3a0019c2bf000068a300eeff3a0023
:1027c000000006000080fb009010880018c2bf00c7
:1027d00001c8b300014060000080fb000000e90078
:1027e0004f00de000000e900000006001642a800cd
:1027f000000006007602a8000000060076c2bf00b6
:102800000008a300fdff3a0076c2bf000018a30035
:10281000faff3a0076c2bf000028a300f7ff3a0093
:1028200076c2bf000038a300f4ff3a0076c2bf00b2
:102830000048a300f1ff3a0079c2bf000068a3007e
:10284000eeff3a00000006000080fb0090138800b5
:1028500078c2bf0001c8b300014060000080fb00e7
:102860000000e9004f00de000000e9000000060063
:102870007642a800000006000622a800000006001c
:10288000889fbe008a9fbe008c9fbe008005780096
:102890008106780002067800800478000005eb00cd
:1028a000150037000662a8000004eb0003003700a3
:1028b0008c0f5400130031000804e8006f0007007b
:1028c0000004e000faff32000010800080767d00f6
:1028d0008904e90002003a0006a2a80001003700be
:1028e00006a2a9000682a80006c2bf000048a300f5
:1028f000fdff3a000a05e8008b0f5500e9ff3a009a
:102900008004eb00090078004f06be004f05be00b2
:102910004f04be000000060006a2a8000682a80020
:10292000000006001622a80000000600889fbe00d6
:102930008a9fbe008c9fbe008005780081067800cb
:1029400002067800800478000005eb0015003700cf
:102950001662a8000004eb00030037008c0f54003f
:10296000130031000804e800480007000004e000fc
:10297000faff32008010800080767d008904e90033
:1029800002003a0016a2a8000100370016a2a90012
:102990001682a80016c2bf000048a300fdff3a003f
:1029a0000a05e8008b0f5500e9ff3a008004eb00b0
:1029b000090078004f06be004f05be004f04be0060
:1029c0000000060016a2a8001682a800000006005b
:1029d0007622a80000000600889fbe008a9fbe00e5
:1029e0008c9fbe0080057800810678000206780082
:1029f000800478000005eb00150037007662a8001f
:102a00000004eb00030037008c0f5400130031006a
:102a10000804e800210007000004e000faff32008b
:102a20008013800080767d008904e90002003a006e
:102a300076a2a8000100370076a2a9007682a8003d
:102a400076c2bf000048a300fdff3a000a05e80077
:102a50008b0f5500e9ff3a008004eb000900780075
:102a60004f06be004f05be004f04be00000006002a
:102a700076a2a8007682a8000000060008c2bf0067
:102a80000000d100610060000000060018c2bf0015
:102a90000000d100610060000000060078c2bf00a5
:0c2aa0000000d100610060000000060092
:020000040000fa
:020000040005f5
:0457f8009e1b0000f4
:020000040000fa
:020000040005f5
:0457fc007f3f0000eb
:020000040000fa
:1000080022a6000022a6000022a6000022a60000c8
:1000180022a6000022a6000022a6000022a60000b8
:1000280022a6000022a6000022a6000022a60000a8
:1000380022a6000022a6000022a6000022a6000098
:1000480022a6000022a6000022a6000022a6000088
:1000580022a6000022a6000022a6000022a6000078
:1000680022a6000022a6000022a6000012a6000078
:1000780022a6000022a6000022a6000022a6000058
:1000880022a6000022a6000022a6000022a6000048
:1000980022a6000022a6000022a6000022a6000038
:1000a80022a6000022a6000022a6000022a6000028
:1000b80022a6000022a6000022a6000022a6000018
:1000c80022a6000022a6000022a6000022a6000008
:1000d80022a6000022a6000022a6000022a60000f8
:1000e80022a6000022a6000022a6000022a60000e8
:1000f80022a6000022a6000022a6000022a60000d8
:1001080022a6000022a6000022a6000022a60000c7
:1001180022a6000022a6000022a6000022a60000b7
:1001280022a6000022a6000022a6000022a60000a7
:1001380022a6000022a6000022a6000022a6000097
:1001480022a6000022a6000022a6000022a6000087
:1001580022a6000022a6000022a6000022a6000077
:1001680022a6000022a6000022a6000022a6000067
:1001780022a6000022a6000022a6000022a6000057
:1001880022a6000022a6000022a6000022a6000047
:1001980022a6000022a6000022a6000022a6000037
:1001a80022a6000022a6000022a6000022a6000027
:1001b80022a6000022a6000022a6000022a6000017
:1001c80022a6000022a6000022a6000022a6000007
:1001d80022a6000022a6000022a6000022a60000f7
:1001e80022a6000022a6000022a6000022a60000e7
:0801f80022a6000022a600006f
:020000040000fa
:1002080022a6000022a6000022a6000022a60000c6
:1002180022a6000022a6000022a6000022a60000b6
:1002280022a6000022a6000022a6000022a60000a6
:1002380022a6000022a6000022a6000022a6000096
:1002480022a6000022a6000022a6000022a6000086
:1002580022a6000022a6000022a6000022a6000076
:1002680022a6000022a6000022a6000012a6000076
:1002780022a6000022a6000022a6000022a6000056
:1002880022a6000022a6000022a6000022a6000046
:1002980022a6000022a6000022a6000022a6000036
:1002a80022a6000022a6000022a6000022a6000026
:1002b80022a6000022a6000022a6000022a6000016
:1002c80022a6000022a6000022a6000022a6000006
:1002d80022a6000022a6000022a6000022a60000f6
:1002e80022a6000022a6000022a6000022a60000e6
:1002f80022a6000022a6000022a6000022a60000d6
:1003080022a6000022a6000022a6000022a60000c5
:1003180022a6000022a6000022a6000022a60000b5
:1003280022a6000022a6000022a6000022a60000a5
:1003380022a6000022a6000022a6000022a6000095
:1003480022a6000022a6000022a6000022a6000085
:1003580022a6000022a6000022a6000022a6000075
:1003680022a6000022a6000022a6000022a6000065
:1003780022a6000022a6000022a6000022a6000055
:1003880022a6000022a6000022a6000022a6000045
:1003980022a6000022a6000022a6000022a6000035
:1003a80022a6000022a6000022a6000022a6000025
:1003b80022a6000022a6000022a6000022a6000015
:1003c80022a6000022a6000022a6000022a6000005
:1003d80022a6000022a6000022a6000022a60000f5
:1003e80022a6000022a6000022a6000022a60000e5
:0803f80022a6000022a600006d
:020000040000fa
:102aac0042610000726300006f640000652000004a
:102abc006572000072000000537400006172000027
:102acc00746900006e670000004400007969000022
:102adc006e67000000540000524900004747000098
:102aec0045520000204500004e4400000025000027
:102afc0064200000256400000054000052490000ce
:102b0c00474700004552000020530000544100008c
:102b1c00525400000052000065610000646900001e
:102b2c006e670000646f00006e65000000440000da
:102b3c006f6e000065200000707200006f63000073
:102b4c006573000073000000446f00006e650000a8
:102b5c0032000000610000004241000052430000be
:102b6c004f440000452e0000545800005400000053
:102b7c00446f00006e65000034000000446f0000dc
:102b8c006e65000033000000537400006172000099
:102b9c00746900006e6700006167000061690000e5
:102bac006e000000202000000a2000002000000021
:102bbc0000950000000000000000000001f900007a
:102bcc000000000000000000088700000400000066
:102bdc000000000009af0000000000000100000030
:102bec000a1b000000000000010000000cc30000e4
:102bfc0000000000000000000daf0000020000000b
:102c0c000000000010ff00000000000000000000a9
:102c1c0011ff0000000000000100000012ff000086
:102c2c00000000000100000018ff00000000000080
:102c3c000100000019ff000000000000010000006e
:102c4c0020ff0000000000000000000021ff000039
:102c5c00000000000000000026df00000100000062
:102c6c0000000000377300000000000000000000ae
:102c7c003a25000004000000000000003b25000085
:102c8c0000000000000000002e2e000000200000bc
:102c9c002020000020200000202000002020000028
:082cac002020000000000000e0
:020000040000fa
:102cb4000400fa000000eb00000f78000600370063
:102cc4009e00780020ca20008080400010c0b3001d
:102cd400804878001e0fe800200020009e0f10009e
:102ce400f7ff34000040eb004aeeb7000040eb0071
:102cf40040eeb7000080eb008080eb00e0718800bc
:102d0400f17188000080eb008080eb002072880065
:102d14003172880083390700e0d52000480207009b
:102d24000004e00036003a0061728000e0d5200023
:102d340080087800617280000000eb00d0009800e9
:102d4400617280000000eb00e00098006272800075
:102d54006000b80070019800010998006272800058
:102d64006000b80010099800210998006172800081
:102d7400c0c5b300c058980010002000000f7800b0
:102d840007003700617280001e0078007c0040005c
:102d94008100400000c2b300804878001e0fe800a4
:102da400a00020009e0f1000f6ff34006172800026
:102db4000000eb00c0109800617280000001200048
:102dc400e010980062728000806580009165800048
:102dd400701198000119980062728000806580006b
:102de4009165800010199800211998000040eb00ab
:102df400b4ecb70010002000100798000200370060
:102e04000000eb00100798001e0090000080fa00fc
:102e1400000006001400fa00881f7800600798007c
:102e24007107980002579800135798006e0090009d
:102e34004010900050079800b00020001007980040
:102e44006e00900080189000701090006e01900049
:102e540010199800211998007e00900060119000cc
:102e6400020078000080ea008180ea0030079800c0
:102e74005e0090000000e00009003a00ea0047000c
:102e840012c0b3006e009000011207000000e000c1
:102e94000f003a00b0012000100798000c00370022
:102ea4005e0090006f0060000000e0000800320047
:102eb400ea00470012c0b3006e009000f41107004e
:102ec4000000e00002003a00b00120001007980062
:102ed4001e009000fb0f5000bb0032001e0090004b
:102ee4000000e000b8003200ea0047006e009000e5
:102ef40084160700504798005e409000e24f50004f
:102f0400b10032005e4090000004e000a5003a00e9
:102f14006e009000e010900041079800ce009000f1
:102f2400f003200000806000400798001e509000cd
:102f34000080fb00100f98001e0890000000e000c5
:102f4400040032009e089000e18f50002b003200f4
:102f5400990037004e009000e80f500096003200b0
:102f64000000eb0010079800d0c6b300104798008b
:102f74000040eb00404798001c0037004e40900092
:102f84000080fb00ee0090007c0040000100400047
:102f940010407800104798004e4090000080fb00dd
:102fa400fe0090007c0040000100400010407800ca
:102fb400004f78001e4090000080fb00b2f507002f
:102fc400000478001e80fb00aff50700800f54005a
:102fd40003003200b000200010079800760037008c
:102fe4004e4090000040e800404798004e4090005a
:102ff400ea4f5000e1ff36006f0037004e009000aa
:10300400be009000010060000000e0006a003a0089
:103014004e009000ef0f5000670032000000eb00fc
:1030240010079800d0c6b300104798007e009000a7
:10303400c0589000a0c2b30080cf500028003200d6
:103044000040eb0040479800220037004e409000bb
:103054000080fb00ee0090007c0040000100400076
:1030640010407800104798004e4090000080fb000c
:10307400fe0090007c0040000100400010407800f9
:10308400004f7800a0c2b3009e4f1000140032001d
:10309400f0c3b3009e4f10000b0032001e4090009e
:1030a4000080fb0078f50700000478001e80fb0018
:1030b40075f50700800f540003003200b0002000b3
:1030c40010079800060037004e4090000040e800ca
:1030d400404798004e409000e74f5000dbff360019
:1030e4007e009000c0609000a0c2b30080cf50006a
:1030f400310032001e0090000000e0002e003a0073
:1031040080c0b30040479800220037004e40900032
:103114000080fb00ee0090007c00400001004000b5
:1031240010407800104798004e4090000080fb004b
:10313400fe0090007c004000010040001040780038
:10314400004f7800a0c2b3009e4f10001a00320056
:10315400f0c3b3009e4f10000b0032001e409000dd
:103164000080fb0048f50700000478001e80fb0087
:1031740045f50700800f540003003200b000200022
:10318400100798000c0037004e4090000040e80003
:10319400404798004e409000ea4f5000dbff360055
:1031a400050037000e5090000004e00002003a00d1
:1031b4000000eb00100798005e0090000000e8009b
:1031c4005007980045ff37001e0090004f04780018
:1031d4000080fa00000006001200fa005007980070
:1031e40061079800624f98000000eb00000f780020
:1031f4005e00900090007800410798004e00900017
:10320400306090000004e00003003a0070002000e9
:10321400000f78008d0037005e0090008018900049
:10322400701090005e019000101998002119980008
:103234006e009000100078000000e00009003a00e1
:1032440012c0b300ee0090005e0090001011070061
:103254000000e00010003a00b0012000000f7800e8
:103264000d0037006e009000100078006f006000c1
:103274000000e0000800320012c0b300ee0090002d
:103284005e009000021107000000e00002003a0016
:10329400b0012000000f7800ee0090005e00900066
:1032a40098150700604798006e4090000004e00005
:1032b40003003200b0002000000f780063003700e4
:1032c4005e0190006000b800700198000109980048
:1032d4005e009000a0009000100090005e0190003d
:1032e4003001980041019800de0090000000eb00de
:1032f400d0009800de0090000000eb00e000980091
:103304006e409000e14f500003003a00b0002000ee
:10331400000f78002d0037005e009000300190000f
:10332400c00190004e009000cc1a070010079800ce
:103334002107980048cebf000004e00006003200d8
:10334400f11c07000004e00003003200900020009c
:10335400000f98003f003700de00900011728800d3
:1033640022728000337280001e009000ae00900034
:10337400800f5100818f5900140032000040eb008f
:103384004aeeb7004e0090009080fb001040900081
:103394000080fb004800dd0001007000000178009f
:1033a4001e009000ae009000d23807000004e00038
:1033b40002003a0080002000000f78001e009000f8
:1033c400ae00900020728800317288005e01900087
:1033d400b2089000b0ff2f00008060003009980010
:1033e400ee48900070c7b30080cf50000400320054
:1033f400ee48900010c6b30080cf50000a003a0097
:10340400de009000310890000000a000b008980091
:103414005e019000b2089000d0ff2f000080600091
:1034240030099800090037005e019000b20890004e
:10343400e0ff2f000080600030099800de0090005b
:10344400310890000010a000b00898009e00780099
:10345400010f98000e0890000080fa00000006009a
:103464001c00fa00200f9800320f9800430f9800b8
:103474000040eb00204798002e089000100f7800c1
:103484001e007800206090000080fb00500f980020
:103494005e089000e10f50000d0032005e099000bc
:1034a400e30f5100010032001200370080ff2f00ab
:1034b400f1ff20002007980031079800f0ff2f004b
:1034c400f1ff2000400798005107980011003700d1
:1034d40080ff200001002000200798003107980099
:1034e400f0ff2f00010020004007980051079800ca
:1034f4000800370080ff2f000100200020079800fb
:1035040031079800f0ff2f000100200040079800c9
:10351400510798002e08900030019000c0019000df
:1035240062079800730798006e019000fe019000f6
:103534001e007800f5200700000f9800110f980076
:103544000e0990009e0990004e009000de0090004d
:10355400800f5100818f590003003a0080c0b300ee
:10356400204798001f0037009e00780041509000cb
:103574000082fb00515090000080fb004800dd00f9
:103584000400700000017800615090000082fb008c
:10359400715090000080fb004800dd0004007000c2
:1035a400800178000e0890009e089000800f510062
:1035b400818f590002003e00a0c0b300204798004c
:1035c4000e0990009e0990002e009000be0090000d
:1035d400800f5100818f590002003900c0c3b3002d
:1035e400204798002e0890000e0990009e09900034
:1035f40032009800430098003e089000ce089000e6
:1036040061005000e0805800300f9800410f98008e
:103614003e089000ce089000e00f5000e08f580064
:10362400030032002e4090000004e000b9ff320095
:103634002e4090000080fb000080fa00000006008d
:103644000800fa00200798000040eb00204798008b
:10365400ae0090000040eb00b0609800ae00900017
:1036640002802000f00f20000000610091417800ea
:10367400e0c86100914870004811de0011409000dc
:10368400604060000240700090409800723907006a
:10369400000f78001e007800104078000004e0005d
:1036a4000500320060c0b3002047980060c0b3003a
:1036b400b4ecb7003c0037001e007800900078009e
:1036c40000102000008060000000e00027003200ad
:1036d4001e007800100090006101b800ae00900058
:1036e400f00f20000002610001589000604060006b
:1036f40004407000805898004812de001158900071
:10370400604060000440700090589800f00f200062
:103714000082610021589000604060000440700005
:10372400a05898004819de003158900060406000ad
:1037340002407000b05898001e007800900090007d
:1037440000202000808f50000800360010c2b30013
:103754002047980010c2b300b4ecb7002e4090008c
:103764000080fb0030079800120037002e00900004
:1037740013000700204798002e4090000004e0004a
:1037840009003a002e0090003e01070020479800ef
:103794002e4090000004e00003003a00ae009000c8
:1037a40010c0b300b06098002e4090000080fb0071
:1037b400300798003e0090000080fa0000000600e8
:1037c4000e00fa00300798000040eb0030479800e4
:1037d4003e0090009080fb00104090000080fb00b1
:1037e4004800dd0001007000000178006000b800ae
:1037f400c0370700e14f50000500320080c0b3001d
:103804003047980080c0b300b4ecb700170137000c
:103814003e0090009080fb00104090000080fb0070
:103824004800dd0001007000000f78001e007800e1
:10383400e0f8930050c5b30080cf5000a3003a00d5
:103844001e007800f0f89300a0cab30080cf5000a7
:103854009e003a003e0090009080fb0010409000d3
:103864000080fb004800dd000100700061032000bf
:103874003d1907008040780060c4b30080cf500039
:1038840043003a003e0090009080fb0010409000fe
:103894000080fb004800dd0001007000710320007f
:1038a400311907008040780010c4b30080cf500065
:1038b40037003a003e0090009080fb0010409000da
:1038c4000080fb004800dd0001007000810320003f
:1038d400251907008040780040c5b30080cf500010
:1038e4002b003a003e0090009080fb0010409000b6
:1038f4000080fb004800dd000100700091032000ff
:10390400191907008040780010c3b30080cf50001d
:103914001f003a003e0090009080fb001040900091
:103924000080fb004800dd000100700061022000ff
:103934000d1907008040780090c2b30080cf50007a
:1039440013003a003e009000a0409000e0c06000e8
:1039540021409800b0409000e0c0600031409800e1
:10396400c0409000e0c0600041409800d04090000a
:10397400e0c0600051409800be00900020c0b30039
:10398400a06098000000eb0050079800ba003700d0
:103994003e0090009080fb00104090000080fb00ef
:1039a4004800dd000100700021052000ee1807002a
:1039b4008040780060c4b30080cf500043003a00d8
:1039c4003e0090009080fb00104090000080fb00bf
:1039d4004800dd000100700031052000e2180700f6
:1039e4008040780010c4b30080cf500037003a0004
:1039f4003e0090009080fb00104090000080fb008f
:103a04004800dd000100700041052000d6180700c1
:103a14008040780040c5b30080cf50002b003a00ae
:103a24003e0090009080fb00104090000080fb005e
:103a34004800dd000100700051052000ca1807008d
:103a44008040780030c3b30080cf50001f003a009c
:103a54003e0090009080fb00104090000080fb002e
:103a64004800dd000100700021042000be1807009a
:103a74008040780090c2b30080cf500013003a0019
:103a84003e009000a0409000e0c0600021409800fb
:103a9400b0409000e0c0600031409800c040900009
:103aa400e0c0600041409800d0409000e0c0600059
:103ab40051409800be00900030c0b300a060980050
:103ac4008000eb00510798006b0037003e00900027
:103ad4009080fb00104090000080fb004800dd0057
:103ae40001007000200798002e009000e0f8930079
:103af40050c5b30080cf500005003a002e0090005e
:103b0400f0f89300a0cab30080cf50000500320043
:103b140040c0b300b4ecb70040c0b30030479800d5
:103b240052003700ae00900061c093000082fb0099
:103b340071c093000080fb004800dd0004007000a9
:103b44000001780001c893000082fb0011c89300b3
:103b54000080fb004800dd00040070008001780054
:103b6400be009000f00f2000000261002140900090
:103b74006040600004407000a04098004812de00dd
:103b8400314090006040600004407000b0409800f4
:103b9400f00f20000082610041409000604060000e
:103ba40004407000c04098004819de005140900065
:103bb4006040600002407000d04098002e009000e9
:103bc400a0c09300214798002e4090000080fb0085
:103bd400400798004e009000ee0f50001f003e007a
:103be40010002000ce0090000100dd006007980066
:103bf40000052400ee009000008060000000e0005a
:103c04000e003a0000802100ee0090000080600069
:103c14000000e0000d003a00ee00900062806000b9
:103c24000000e00001003a000c003700be009000e4
:103c340010c0b300a06098000c003700be009000d4
:103c440020c0b300a060980008003700be009000b8
:103c540030c0b300a06098000400370050c0b30027
:103c6400b4ecb70050c0b300304798003e40900019
:103c74000080fb00500798005e0090000080fa006e
:103c8400000006001c00fa00889fbe008a9fbe0048
:103c9400400f98000040eb00204f98000000eb001c
:103ca400100798000000eb00000f78004e08900009
:103cb4009080fb00104090000080fb004800dd0075
:103cc4000100700080017800ce089000214090002f
:103cd4000081fb00314090000080fb004800dd00c3
:103ce4000200700000027800414090000081fb0057
:103cf400514090000080fb004800dd00020070008d
:103d040080027800030178000400be0079360700c1
:103d1400e14f50000300320080c0b300204f9800f0
:103d2400eb0237004e0890009080fb00104090009a
:103d34000080fb004800dd0001007000400798008f
:103d4400000037004e009000e0f8930050c5b30027
:103d540080cf500005003a004e009000f0f8930028
:103d6400a0cab30080cf50000300320030c0b300bb
:103d7400204f9800210237004e0890009080fb00ed
:103d8400104090000080fb004800dd00010070003e
:103d9400e1002000fd170700200798004e0890005e
:103da4009080fb00104090000080fb004800dd0084
:103db40001007000d1002000eb170700804078005c
:103dc4004e08900011609800ce08900021409000a9
:103dd4000082fb00314090000080fb004800dd00c1
:103de4000400700000017800414090000082fb0054
:103df400514090000080fb004800dd00040070008a
:103e0400800178002e009000010020000201400093
:103e140083814800ce089000f00f2000000261006a
:103e2400614090006040600004407000e0409800f1
:103e34004812de0071409000604060000440700051
:103e4400f0409800f00f20000082610001489000cb
:103e54006040600004407000804898004819de000b
:103e64001148900060406000024070009048980043
:103e74004e0890009080fb00104090000080fb00f2
:103e84004800dd000100700001012000b6170700a2
:103e9400804078004e089000016098004e08900021
:103ea4009080fb00104090000080fb004800dd0083
:103eb4000100700061012000b41707006101b8001f
:103ec400ce089000f00f20000002610041589000dd
:103ed4006040600004407000c05898004812de0042
:103ee400515890006040600004407000d058980021
:103ef400f00f200000826100615890006040600073
:103f040004407000e05898004819de007158900091
:103f14006040600002407000f0589800ce089000a5
:103f2400415890000082fb00515890000080fb0033
:103f34004800dd0004007000000178006158900022
:103f44000082fb00715890000080fb004800dd00f7
:103f54000400700080017800e00f5100e08f5900e8
:103f640020003a004e0890009080fb001040900022
:103f74000080fb004800dd000100700041022000c9
:103f84009c1707000001be00ce089000f00f20002f
:103f940000026100415890006040600004407000dd
:103fa400c05898004812de005158900060406000ec
:103fb40004407000d0589800f00f20000082610087
:103fc400615890006040600004407000e058980020
:103fd4004819de0071589000604060000240700093
:103fe400f0589800ce089000614090000081fb00da
:103ff400714090000080fb004800dd00020070006a
:1040040000057800014890000081fb0011489000f1
:104014000080fb004800dd0002007000800578008d
:104024004e089000006090000084fb00090020000e
:10403400ce089000415890000081fb005158900038
:104044000080fb004800dd000200700000037800df
:10405400615890000081fb00715890000080fb00c3
:104064004800dd00020070008003780088007800ba
:1040740006007800000ab80007c0b90005017800fe
:104084000001410009b0b90000014100820278003a
:104094000a0142008b814a00ce089000f00f2000f4
:1040a40000026100214890006040600004407000fc
:1040b400a04898004812de0031489000604060003b
:1040c40004407000b0489800f00f200000826100a6
:1040d400414890006040600004407000c04898006f
:1040e4004819de00514890006040600002407000b2
:1040f400d04898004e0890009080fb00104090003b
:104104000080fb004800dd00010070001101200068
:104114001e17070080017800ce089000f00f2000e1
:1041240000816100215090006040600002407000f6
:10413400a05098004819de003150900060406000a3
:1041440002407000b05098004e0890009080fb0030
:10415400104090000080fb004800dd00010070006a
:10416400310120000917070001002000000f98000a
:10417400110f98000e0890009e089000e00f500068
:10418400e08f58000a003a004e0890009080fb002f
:10419400104090000080fb004800dd00010070002a
:1041a4000102200013170700000f9800110f980058
:1041b4004e0890009080fb00104090000080fb00af
:1041c4004800dd0001007000b1002000ef16070078
:1041d400300798003e0090000000e0000400320028
:1041e4003e009000610060000004e0000300320023
:1041f40010c2b300204f980000013700ce08900091
:10420400215090000081fb00315090000080fb00a1
:104214004800dd0002007000c500dd003e00900093
:10422400008040000000e9003e01900011000900f8
:104234000280d80001002000200f9800310f980060
:104244002e0090006105b8004e08900000609000b8
:104254000084fb0009002000ce0890004158900023
:104264000081fb00515890000080fb004800dd00f5
:104274000200700000037800615890000081fb0088
:10428400715890000080fb004800dd0002007000bf
:10429400800378008800780006007800000ab800df
:1042a40007c0b900050178000001410009b0b90058
:1042b40000014100820278000a0142008b814a0019
:1042c4002e089000be08900002014000838148003f
:1042d4000e0890009e089000020050008380580051
:1042e40060079800710798004e08900010609000d5
:1042f4000081fb00030020006e009000fe0090008f
:10430400cdf607000001be00ce089000f00f20009b
:104314000002610041509000604060000440700061
:10432400c05098004812de00515090006040600078
:1043340004407000d0509800f00f2000008261000b
:10434400615090006040600004407000e0509800ac
:104354004819de0071509000604060000240700017
:10436400f0509800ce089000415090000082fb006d
:10437400515090000080fb004800dd0004007000f4
:1043840000017800615090000082fb0071509000a1
:104394000080fb004800dd0004007000800178000c
:1043a40040ff200001002000800f5100818f590040
:1043b40004003e00ce08900010c0b300a060980036
:1043c4001b003700ce089000415090000082fb0093
:1043d400515090000080fb004800dd000400700094
:1043e40000017800615090000082fb007150900041
:1043f4000080fb004800dd000400700080017800ac
:1044040040ff2f0001002000800f5100818f5900d0
:1044140004003e00ce08900020c0b300a0609800c5
:1044240003003700ce08900030c0b300a0609800ad
:104434004e08900020609000e34f500035003a0091
:104444004e0890009080fb00104090000080fb001c
:104454004800dd0001007000c1022000651607005d
:104464008065880091658800ce08900021489000fe
:104474000082fb00314890000080fb004800dd0012
:104484000400700000017800414890000082fb00a5
:10449400514890000080fb004800dd0004007000db
:1044a400800178002e089000be08900002014000b0
:1044b40083814800ce089000f00f200000026100c4
:1044c400614890006040600004407000e04898003b
:1044d4004812de00714890006040600004407000a3
:1044e400f0489800f00f2000008261000150900015
:1044f4006040600004407000805098004819de005d
:10450400115090006040600002407000905098008c
:10451400340037006000b800806588009165880029
:10452400ce089000214890000082fb0031489000a2
:104534000080fb004800dd000400700000017800ea
:10454400414890000082fb00514890000080fb002d
:104554004800dd000400700080017800ce0890005f
:10456400215090000082fb00315090000080fb003d
:104574004800dd00040070004400de00010020005b
:104584000201400083814800ce089000f00f200013
:1045940000026100614890006040600004407000c7
:1045a400e04898004812de007148900060406000c6
:1045b40004407000f0489800f00f20000082610071
:1045c40001509000604060000440700080509800ea
:1045d4004819de00115090006040600002407000f5
:1045e40090509800be00900000202000808f500062
:1045f4000200360010c2b300204f98004e0890000d
:1046040020609000e34f50000d0032002e489000cf
:104614000004e000ae0032004e009000a0c0900004
:1046240090c2b30080cf5000050032004e009000cd
:10463400a0c0900080c2b30080cf5000a4003a0014
:10464400ce009000315090000081fb00415090005a
:104654000080fb004800dd00020070000000e00064
:104664003a003a004e009000407090000004e000d0
:1046740036003a004e009000507090000004e000b4
:1046840032003a004e009000607090000004e00098
:104694002e003a004e009000707090000004e0007c
:1046a4002a003a004e009000007890000004e000d8
:1046b40026003a004e009000107890000004e000bc
:1046c40022003a004e009000207890000004e000a0
:1046d4001e003a004e009000307890000004e00084
:1046e4001a003a004e009000407890000004e00068
:1046f40016003a004e009000507890000004e0004c
:1047040012003a004e009000607890000004e0002f
:104714000e003a004e009000707890000004e00013
:104724000a003a004e009000a0c0900090c2b3006e
:1047340080cf5000070032004e009000a0c09000cf
:1047440080c2b30080cf50000200320030c0b300fa
:10475400204f98002e4890000004e0003100320001
:104764001e0090000000e0002e003a00100020001f
:10477400100798004e0890009080fb0010409000b5
:104784000080fb004800dd0001007000800278001a
:10479400ce089000214090000082fb003140900040
:1047a4000080fb004800dd00040070000001780078
:1047b400414090000082fb00514090000080fb00cb
:1047c4004800dd000400700080017800ce009000f5
:1047d400217090000082fb00317090000080fb008b
:1047e4004800dd00040070000100200002004000c9
:1047f4008380480005017800be330700e14f500074
:104804000500320080c0b300b4ecb7008000200083
:10481400500f9800360037000040eb00204f9800fe
:1048240048fd37002e4890000004e00028003200c4
:104834001e00e00026003a0010002000000f78005f
:104844004e0890009080fb00104090000080fb0018
:104854004800dd000100700080027800ce0890005e
:10486400214090000082fb00314090000080fb005a
:104874004800dd0004007000000178004140900011
:104884000082fb00514090000080fb004800dd00e6
:10489400040070008001780066004100e080490057
:1048a4000501780093330700e14f50000500320002
:1048b40080c0b300b4ecb70080002000500f980013
:1048c4000b0037000040eb00204f98001dfd37001f
:1048d4002e4890000004e000020032002e489000b0
:1048e400b4ecb7002e4890000080fb00500f9800f5
:1048f4005e0890004f05be004f04be000080fa0021
:10490400000006000600fa00200798006000b800c6
:10491400008fbe002e0090002008900001002000af
:10492400008fbe001e00be00c000dd00000020009d
:10493400008fbe002e00900050089000010020005f
:104944001e1f70001e9770001e00be000080fa003b
:10495400000006001400fa00500798006107980050
:1049640072079800030f98006000b80020079800b1
:10497400310798005e009000ee009000e00f5000b8
:10498400e08f5800070032007e0190008e099000ed
:104994001000200001002000800f5100818f590079
:1049a40003003e000080eb00100f98001b0137004d
:1049b4007e0090008e08900061015000e081580054
:1049c4005e009000ee009000800f5100818f59002e
:1049d400030031008080eb00110f98000f013700b5
:1049e40048cebf000004e00006003200461707006e
:1049f4000004e000030032000081eb00120f980075
:104a04000601370000802000022020008000eb0017
:104a140024ef070000802000400798005e0090000b
:104a2400ee009000008fbe001e00be0012ec2300ba
:104a34000300200000f507004e09dd00c200de007f
:104a4400810071004e00dd002007980031079800b6
:104a54001e00be0012ec23000300200006f5070030
:104a6400008fbe001e00be00f203200003002000e1
:104a7400f1f407004609dd00ca01de00830171007c
:104a84004601dd002e009000be0090000200700080
:104a94008380700020079800310798001e00be0034
:104aa400f203200003002000f3f40700008fbe008f
:104ab40010002000010020003e014000ae814800ab
:104ac4002e009000be0090000200700083807000f1
:104ad40020079800310798002e009000be00900037
:104ae4004008de0001002000bfe9b7002e0090005e
:104af400be0090004809dd004800de00000071009f
:104b0400c808de00c0e9b7002e009000c1e9b70074
:104b14007e0190008e0990005e009000ee009000ef
:104b24000001510081815900ce009000f00f200057
:104b34000002610021c893006040600004407000de
:104b4400a0c89b004812de0031c89300604060009a
:104b540004407000b0c89b00f00f20000082610088
:104b640041c893006040600004407000c0c89b00ce
:104b74004819de0051c89300604060000240700094
:104b8400d0c89b00ce00900021c893000082fb0097
:104b940031c893000080fb004800dd000400700071
:104ba4000001780041c893000082fb0051c89300c3
:104bb4000080fb004800dd000400700080017800e4
:104bc4008003210001002000800f5100818f5900d3
:104bd40004003e00ce00900010c0b300a0c09b00b3
:104be4001b003700ce00900021c893000082fb0018
:104bf40031c893000080fb004800dd000400700011
:104c04000001780041c893000082fb0051c8930062
:104c14000080fb004800dd00040070008001780083
:104c2400f0d52f00f1032000800f5100818f59002f
:104c340004003e00ce00900060c0b300a0c09b0002
:104c4400030037008081eb00130f980073003700d6
:104c5400ce0090005e019000f00f20000001610082
:104c640061c093006040600002407000e0c09b009f
:104c74005e0090004801de0071c093006040600057
:104c840002407000f0c09b006e019000f00f200005
:104c94000001610001c893006040600002407000a0
:104ca40080c89b006e0090004801de0011c893008c
:104cb400604060000240700090c89b005e0190005c
:104cc400ee0190007e0090008e08900002004000eb
:104cd400838048000081eb008081eb00021f4000cc
:104ce400039748001e00be0012ec230003002000be
:104cf40051f40700ce09dd00c200de00818071009e
:104d04004e00dd0020079800310798001e00be0009
:104d140012ec23000300200057f40700008fbe00ac
:104d24001e00be00f20320000300200042f407002e
:104d34004609dd00ca01de00830171004601dd0081
:104d44002e009000be00900002007000838070006e
:104d540020079800310798001e00be00f2032000cf
:104d64000300200044f40700008fbe001000200060
:104d7400010020003e014000ae8148002e0090005a
:104d8400be0090000200700083807000200798002d
:104d9400310798002e009000be0090004008de000d
:104da40001002000c3e9b7002e009000be0090006f
:104db4004809dd004800de0000007100c808de007c
:104dc400c4e9b7002e009000c5e9b700ce009000fa
:104dd4000040eb00e0789b00ce00900050c5b3008b
:104de400e0f89b00ce009000a0cab300f0f89b004e
:104df40013c0b300028020006000b800c132070075
:104e0400e14f5000030032008081eb00130f980043
:104e1400020037000000eb00100f98001e089000fd
:104e24000080fa00000006006c00fa00889fbe00b3
:104e34008a9fbe0060c798004227980053279800b5
:104e440061279800200220000e004000000f980007
:104e54000040eb00b4ecb7000040eb004aeeb700b2
:104e64000040eb0040eeb7000080eb008080eb00d8
:104e7400e0718800f17188000080eb008080eb0015
:104e840020728800317288008e0890000280200011
:104e9400f00f20000000610091417800e0c861003b
:104ea400914870004811de0011409000604060009d
:104eb40002407000904098001a31070066330700e2
:104ec400000f78001e007800104078000004e00015
:104ed4000500320060c0b300b4ecb7000082eb0000
:104ee400142f9800f5083700028020006000b800f5
:104ef400003207000004e00005003a00b0c1b3002e
:104f0400b4ecb7000080eb00102f9800eb083700da
:104f14000e0890009080fb00104090000080fb0081
:104f24004800dd0001007000100f98001e0890007a
:104f3400e0f8930050c5b30080cf50009a003a00c7
:104f44001e089000f0f89300a0cab30080cf500070
:104f540095003a000e0890009080fb0010409000ed
:104f64000080fb004800dd000100700061032000a8
:104f74007d1307008040780060c4b30080cf5000e8
:104f840057003a000e0890009080fb0010409000fb
:104f94000080fb004800dd00010070007103200068
:104fa400711307008040780010c4b30080cf500014
:104fb4004b003a000e0890009080fb0010409000d7
:104fc4000080fb004800dd00010070008103200028
:104fd400651307008040780040c5b30080cf5000bf
:104fe4003f003a000e0890009080fb0010409000b3
:104ff4000080fb004800dd000100700091032000e8
:10500400591307008040780010c3b30080cf5000cc
:1050140033003a000e0890009080fb00104090008e
:105024000080fb004800dd000100700061022000e8
:105034004d1307008040780090c2b30080cf500029
:1050440027003a000000eb00001798006ec09000a3
:105054000000fb00002f98008e2890000100e00063
:10506400090032000e299000e10f510001003200c6
:1050740043003700f0c1b300b4ecb7008081eb000b
:10508400132f98008d0837000e089000a040900060
:10509400e0c0600021409800b0409000e0c0600093
:1050a40031409800c0409000e0c06000414098004a
:1050b400d0409000e0c06000514098000e0890007d
:1050c400f0fa07000004e0002d003200b0c1b30084
:1050d400b4ecb7000082eb00142f98007708370077
:1050e40000802000001798008e10900061c093008b
:1050f4000082fb0071c093000080fb004800dd00cb
:10510400040070000001780001c893000082fb00d5
:1051140011c893000080fb004800dd00040070000b
:10512400800178008e089000f00f200000026100da
:10513400214090006040600004407000a04098004e
:105144004812de003140900060406000044070006e
:10515400b0409800f00f20000082610041409000b0
:105164006040600004407000c04098004819de00b0
:10517400514090006040600002407000d0409800b0
:105184006ec090000000fb00702798007e20900005
:105194000000e0002f053200fe209000e18f500057
:1051a400060032003405370040c0b300b4ecb70049
:1051b4000081eb00122f9800400837008e109000f9
:1051c40021c893000082fb0031c893000080fb00db
:1051d4004800dd00040070000001780041c893001d
:1051e4000082fb0051c893000080fb004800dd00f2
:1051f4000400700080017800620f9800730f98001b
:105204006e099000fe099000800321000100200037
:10521400800f5100818f590071003e008e0890006c
:1052240010c0b300a06098008e10900010c0b300ae
:10523400a0c09b0013c0b300028020006000b8002f
:10524400b03107000004e00005003a0090c0b3004c
:10525400b4ecb7008081eb00132f980017083700d7
:105264006e099000fe0990007002210001002000e8
:10527400800f5100818f5900040036008e08900081
:1052840020c0b30090609800030037008e0890009f
:1052940010c0b3009060980000802000022020001d
:1052a4008000eb00ffec070020c3b3003ae8b7002e
:1052b4000e089000106090000080fb000000400089
:1052c4006101b9006e089000fe08900002014000e0
:1052d40083814800f0fd2f00f1ff2f000200400001
:1052e4008380480050079800610798000e089000da
:1052f400106090008080fb00501520000088b900e9
:105304000080e800cf80de00300798004107980055
:105314003e019000ce0190005e009000ee009000ef
:10532400020040008380480061005000e080580083
:105334003e019000ce019000bff207005007980094
:10534400610798008e08900020c0b3008060980028
:105354008e0890002150900060406000a05098009a
:1053640031509000604060000014a000b0509800dc
:105374008e0890005e019000f00f20000001610093
:10538400415890006040600002407000c05898008e
:105394005e0090004801de005158900060406000bb
:1053a40002407000d05898006e019000f00f200069
:1053b400000161006158900060406000024070008c
:1053c400e05898006e0090004801de00715890008b
:1053d4006040600002407000f058980011013700ee
:1053e4006e099000fe099000f0d52f00f103200013
:1053f400800f5100818f59008c003e008e08900070
:1054040020c0b300a06098008e10900060c0b3006c
:10541400a0c09b0013c0b300028020006000b8004d
:10542400383107000004e00005003a0090c0b300e2
:10543400b4ecb7000082eb00142f98009f073700ec
:105444006e099000fe09900080de2f00f1ff2f000e
:105454000200400083804800400f9800510f9800dc
:105464008e08900010c0b300906098000d003700c3
:105474000e089000106090000080fb0000004000c7
:10548400804078000e089000116098004e0890004b
:10549400de0890008100d1000080d300400f980006
:1054a400510f98004e099000de099000d0fe2f00a5
:1054b40001002000800f5100818f5900ecff3e0055
:1054c4000e0890009060900000c8b30080cf500098
:1054d4000500360040c0b300b4ecb7000080eb0018
:1054e400102f98007507370000802000022020004c
:1054f4008000eb006bec070060c3b3003ae8b70030
:105504000e089000106090000080fb000000400036
:105514006101b9006e089000fe089000020140008d
:1055240083814800f0fd2f00f1ff2f0002004000ae
:105534008380480050079800610798000e08900087
:10554400106090000080fb004800dd000080e8004f
:10555400cf80de0030079800410798003e0190009c
:10556400ce0190005e009000ee009000020040002a
:105574008380480061005000e08058003e019000a4
:10558400ce0190002cf207005007980061079800a4
:105594008e08900020c0b300806098008e089000b0
:1055a4002150900060406000a0509800315090005d
:1055b400604060000014a000b05098008e08900075
:1055c4005e019000f00f200000016100415890003e
:1055d4006040600002407000c05898005e00900077
:1055e4004801de00515890006040600002407000a5
:1055f400d05898006e019000f00f20000001610067
:10560400615890006040600002407000e0589800cb
:105614006e0090004801de00715890006040600008
:1056240002407000f05898007e0037008e08900009
:1056340030c0b300a06098008e109000b0c0b300da
:10564400a0c09b0013c0b300028020006000b8001b
:10565400ac3007000004e00005003a0090c0b3003d
:10566400b4ecb7008080eb00112f980013073700cb
:105674006e099000fe099000420f9800530f9800a5
:105684008e08900010c0b300906098000d003700a1
:105694000e089000106090000080fb0000004000a5
:1056a400804078000e089000116098004e08900029
:1056b400de0890008100d1000080d300400f9800e4
:1056c400510f98004e099000de099000e0ff2b0076
:1056d400f1032000800f5100818f5900ecff3e0040
:1056e4000e0890009060900000c8b30080cf500076
:1056f4000500360040c0b300b4ecb7008081eb0075
:10570400132f9800ed0637000080200002202000af
:105714008000eb00e3eb07006e099000fe099000a7
:1057240000fe2f00f1ff2f0002004000838048009c
:1057340050079800610798000e08900010609000d0
:105744000080fb004700dd000000e800cf80de00a1
:1057540030079800410798003e019000ce01900068
:105764005e009000ee00900002004000838048003c
:1057740061005000e08058003e019000ce0190008e
:10578400adf1070050079800610798008e0890005b
:1057940020c0b300806098008e08900021509000d3
:1057a40060406000a050980031509000604060005c
:1057b4000014a000b05098008e0890005e01900084
:1057c400f00f20000001610041589000604060002b
:1057d40002407000c05898005e0090004801de004e
:1057e400515890006040600002407000d05898000a
:1057f4006e019000f00f20000001610061589000dc
:105804006040600002407000e05898006e00900014
:105814004801de0071589000604060000240700052
:10582400f0589800b0ceb30000e8b700c0c3b3008e
:1058340001e8b70000c9b30002e8b700d0c4b30060
:1058440003e8b70030c4b30004e8b70080c4b30071
:1058540005e8b70000c5b30006e8b70000c2b3000e
:1058640007e8b70060c4b30008e8b70010c4b30089
:1058740009e8b70040c5b3000ae8b7000040eb00f0
:105884000be8b70020c0b3000ce8b7000e08900086
:10589400106090000de8b7000e08900020609000a2
:1058a400e14f5000040032000e0890002060900088
:1058b400e24f500063013a0080c0b3000ee8b70025
:1058c4000040eb000fe8b7008e08900021409000e4
:1058d4000082fb00314090000080fb004800dd00a6
:1058e4000400700000017800414090000082fb0039
:1058f400514090000080fb004800dd00040070006f
:105904008001780068014100e08149008e08900020
:10591400f00f2000000261006140900060406000d0
:1059240004407000e04098004812de00714090008e
:105934006040600004407000f0409800f00f2000c8
:1059440000826100014890006040600004407000e3
:10595400804898004819de001148900060406000bb
:10596400024070009048980020c0b30010e8b700cf
:105974000040eb0011e8b70020c0b30012e8b70004
:105984000040eb0013e8b7000040eb0014e8b70058
:1059940080cfb30015e8b7005e00900016e8b700aa
:1059a4005e009000ee009000480add004800de0032
:1059b40000007200c808de0017e8b700f0c3b300a7
:1059c40018e8b7000040eb0019e8b70000c0eb008e
:1059d4001ae8b7000040eb001be8b7008e089000ff
:1059e400214090000082fb00314090000080fb00c9
:1059f4004800dd0004007000000178004140900080
:105a04000082fb00514090000080fb004800dd0054
:105a14000400700080017800024078001ce8b700a0
:105a24008e089000214090000082fb0031409000dd
:105a34000080fb004800dd000400700000017800d5
:105a4400414090000082fb00514090000080fb0028
:105a54004800dd000400700080017800481add0071
:105a64004810de0000007200c818de001de8b70010
:105a74008e089000214090000082fb00314090008d
:105a84000080fb004800dd00040070000001780085
